{
  "_format": "hh-sol-artifact-1",
  "contractName": "ProjectTokenFactory",
  "sourceName": "contracts/ProjectTokenFactory.sol",
  "abi": [
    {
      "inputs": [
        {
          "internalType": "address",
          "name": "_whitelistApiAddress",
          "type": "address"
        }
      ],
      "stateMutability": "nonpayable",
      "type": "constructor"
    },
    {
      "inputs": [
        {
          "internalType": "string",
          "name": "_title",
          "type": "string"
        },
        {
          "internalType": "string",
          "name": "_description",
          "type": "string"
        },
        {
          "internalType": "string",
          "name": "_symbol",
          "type": "string"
        },
        {
          "internalType": "uint256",
          "name": "_initialSupply",
          "type": "uint256"
        }
      ],
      "name": "createProject",
      "outputs": [
        {
          "components": [
            {
              "internalType": "contract Project",
              "name": "project",
              "type": "address"
            },
            {
              "internalType": "contract ProjectToken",
              "name": "token",
              "type": "address"
            }
          ],
          "internalType": "struct ProjectTokenFactory.ProjectAndToken",
          "name": "",
          "type": "tuple"
        }
      ],
      "stateMutability": "nonpayable",
      "type": "function"
    },
    {
      "inputs": [],
      "name": "getDeployedTokens",
      "outputs": [
        {
          "internalType": "address[]",
          "name": "",
          "type": "address[]"
        }
      ],
      "stateMutability": "view",
      "type": "function"
    },
    {
      "inputs": [],
      "name": "getProjects",
      "outputs": [
        {
          "components": [
            {
              "internalType": "contract Project",
              "name": "project",
              "type": "address"
            },
            {
              "internalType": "contract ProjectToken",
              "name": "token",
              "type": "address"
            }
          ],
          "internalType": "struct ProjectTokenFactory.ProjectAndToken[]",
          "name": "",
          "type": "tuple[]"
        }
      ],
      "stateMutability": "view",
      "type": "function"
    },
    {
      "inputs": [
        {
          "internalType": "address",
          "name": "userAddress",
          "type": "address"
        }
      ],
      "name": "isWhitelisted",
      "outputs": [
        {
          "internalType": "bool",
          "name": "",
          "type": "bool"
        }
      ],
      "stateMutability": "view",
      "type": "function"
    },
    {
      "inputs": [
        {
          "internalType": "address",
          "name": "",
          "type": "address"
        }
      ],
      "name": "whitelist",
      "outputs": [
        {
          "internalType": "enum ProjectTokenFactory.WhitelistStatus",
          "name": "",
          "type": "uint8"
        }
      ],
      "stateMutability": "view",
      "type": "function"
    },
    {
      "inputs": [],
      "name": "whitelistApiAddress",
      "outputs": [
        {
          "internalType": "address",
          "name": "",
          "type": "address"
        }
      ],
      "stateMutability": "view",
      "type": "function"
    },
    {
      "inputs": [
        {
          "internalType": "address",
          "name": "userAddress",
          "type": "address"
        },
        {
          "internalType": "enum ProjectTokenFactory.WhitelistStatus",
          "name": "status",
          "type": "uint8"
        }
      ],
      "name": "whitelistUser",
      "outputs": [],
      "stateMutability": "nonpayable",
      "type": "function"
    }
  ],
  "bytecode": "0x608060405234801561001057600080fd5b50613656806100206000396000f3fe60806040523480156200001157600080fd5b5060043610620000885760003560e01c8063622ae7aa1162000063578063622ae7aa14620001195780639b19251a146200013b578063ab9a1d5f1462000171578063dcc6012814620001935762000088565b80631ca73896146200008d5780632e9894cb14620000c35780633af32abf14620000e3575b600080fd5b620000ab6004803603810190620000a5919062000965565b620001b5565b604051620000ba919062000b17565b60405180910390f35b620000e16004803603810190620000db919062000ba1565b6200040a565b005b620001016004803603810190620000fb919062000be8565b620004fc565b60405162000110919062000c37565b60405180910390f35b620001236200057d565b60405162000132919062000d22565b60405180910390f35b62000159600480360381019062000153919062000be8565b6200060d565b60405162000168919062000dc6565b60405180910390f35b6200017b6200062d565b6040516200018a919062000df4565b60405180910390f35b6200019d62000645565b604051620001ac919062000f01565b60405180910390f35b620001bf62000752565b33620001cb81620004fc565b6200020d576040517f08c379a0000000000000000000000000000000000000000000000000000000008152600401620002049062000f86565b60405180910390fd5b6000338787604051620002209062000798565b6200022e9392919062001020565b604051809103906000f0801580156200024b573d6000803e3d6000fd5b5090506000878686306040516200026290620007a6565b620002719493929190620010a1565b604051809103906000f0801580156200028e573d6000803e3d6000fd5b50905060008190506001819080600181540180825580915050600190039060005260206000200160009091909190916101000a81548173ffffffffffffffffffffffffffffffffffffffff021916908373ffffffffffffffffffffffffffffffffffffffff160217905550600060405180604001604052808573ffffffffffffffffffffffffffffffffffffffff1681526020018473ffffffffffffffffffffffffffffffffffffffff168152509050600281908060018154018082558091505060019003906000526020600020906002020160009091909190915060008201518160000160006101000a81548173ffffffffffffffffffffffffffffffffffffffff021916908373ffffffffffffffffffffffffffffffffffffffff16021790555060208201518160010160006101000a81548173ffffffffffffffffffffffffffffffffffffffff021916908373ffffffffffffffffffffffffffffffffffffffff16021790555050508095505050505050949350505050565b735b38da6a701c568545dcfcb03fcb875f56beddc473ffffffffffffffffffffffffffffffffffffffff163373ffffffffffffffffffffffffffffffffffffffff16146200048f576040517f08c379a000000000000000000000000000000000000000000000000000000000815260040162000486906200114c565b60405180910390fd5b806000808473ffffffffffffffffffffffffffffffffffffffff1673ffffffffffffffffffffffffffffffffffffffff16815260200190815260200160002060006101000a81548160ff02191690836002811115620004f357620004f262000d46565b5b02179055505050565b600060028081111562000514576200051362000d46565b5b6000808473ffffffffffffffffffffffffffffffffffffffff1673ffffffffffffffffffffffffffffffffffffffff16815260200190815260200160002060009054906101000a900460ff16600281111562000575576200057462000d46565b5b149050919050565b606060018054806020026020016040519081016040528092919081815260200182805480156200060357602002820191906000526020600020905b8160009054906101000a900473ffffffffffffffffffffffffffffffffffffffff1673ffffffffffffffffffffffffffffffffffffffff1681526020019060010190808311620005b8575b5050505050905090565b60006020528060005260406000206000915054906101000a900460ff1681565b735b38da6a701c568545dcfcb03fcb875f56beddc481565b60606002805480602002602001604051908101604052809291908181526020016000905b828210156200074957838290600052602060002090600202016040518060400160405290816000820160009054906101000a900473ffffffffffffffffffffffffffffffffffffffff1673ffffffffffffffffffffffffffffffffffffffff1673ffffffffffffffffffffffffffffffffffffffff1681526020016001820160009054906101000a900473ffffffffffffffffffffffffffffffffffffffff1673ffffffffffffffffffffffffffffffffffffffff1673ffffffffffffffffffffffffffffffffffffffff16815250508152602001906001019062000669565b50505050905090565b6040518060400160405280600073ffffffffffffffffffffffffffffffffffffffff168152602001600073ffffffffffffffffffffffffffffffffffffffff1681525090565b6109fc806200116f83390190565b611ab68062001b6b83390190565b6000604051905090565b600080fd5b600080fd5b600080fd5b600080fd5b6000601f19601f8301169050919050565b7f4e487b7100000000000000000000000000000000000000000000000000000000600052604160045260246000fd5b6200081d82620007d2565b810181811067ffffffffffffffff821117156200083f576200083e620007e3565b5b80604052505050565b600062000854620007b4565b905062000862828262000812565b919050565b600067ffffffffffffffff821115620008855762000884620007e3565b5b6200089082620007d2565b9050602081019050919050565b82818337600083830152505050565b6000620008c3620008bd8462000867565b62000848565b905082815260208101848484011115620008e257620008e1620007cd565b5b620008ef8482856200089d565b509392505050565b600082601f8301126200090f576200090e620007c8565b5b813562000921848260208601620008ac565b91505092915050565b6000819050919050565b6200093f816200092a565b81146200094b57600080fd5b50565b6000813590506200095f8162000934565b92915050565b60008060008060808587031215620009825762000981620007be565b5b600085013567ffffffffffffffff811115620009a357620009a2620007c3565b5b620009b187828801620008f7565b945050602085013567ffffffffffffffff811115620009d557620009d4620007c3565b5b620009e387828801620008f7565b935050604085013567ffffffffffffffff81111562000a075762000a06620007c3565b5b62000a1587828801620008f7565b925050606062000a28878288016200094e565b91505092959194509250565b600073ffffffffffffffffffffffffffffffffffffffff82169050919050565b6000819050919050565b600062000a7f62000a7962000a738462000a34565b62000a54565b62000a34565b9050919050565b600062000a938262000a5e565b9050919050565b600062000aa78262000a86565b9050919050565b62000ab98162000a9a565b82525050565b600062000acc8262000a86565b9050919050565b62000ade8162000abf565b82525050565b60408201600082015162000afc600085018262000aae565b50602082015162000b11602085018262000ad3565b50505050565b600060408201905062000b2e600083018462000ae4565b92915050565b600062000b418262000a34565b9050919050565b62000b538162000b34565b811462000b5f57600080fd5b50565b60008135905062000b738162000b48565b92915050565b6003811062000b8757600080fd5b50565b60008135905062000b9b8162000b79565b92915050565b6000806040838503121562000bbb5762000bba620007be565b5b600062000bcb8582860162000b62565b925050602062000bde8582860162000b8a565b9150509250929050565b60006020828403121562000c015762000c00620007be565b5b600062000c118482850162000b62565b91505092915050565b60008115159050919050565b62000c318162000c1a565b82525050565b600060208201905062000c4e600083018462000c26565b92915050565b600081519050919050565b600082825260208201905092915050565b6000819050602082019050919050565b62000c8b8162000b34565b82525050565b600062000c9f838362000c80565b60208301905092915050565b6000602082019050919050565b600062000cc58262000c54565b62000cd1818562000c5f565b935062000cde8362000c70565b8060005b8381101562000d1557815162000cf9888262000c91565b975062000d068362000cab565b92505060018101905062000ce2565b5085935050505092915050565b6000602082019050818103600083015262000d3e818462000cb8565b905092915050565b7f4e487b7100000000000000000000000000000000000000000000000000000000600052602160045260246000fd5b6003811062000d895762000d8862000d46565b5b50565b600081905062000d9c8262000d75565b919050565b600062000dae8262000d8c565b9050919050565b62000dc08162000da1565b82525050565b600060208201905062000ddd600083018462000db5565b92915050565b62000dee8162000b34565b82525050565b600060208201905062000e0b600083018462000de3565b92915050565b600081519050919050565b600082825260208201905092915050565b6000819050602082019050919050565b60408201600082015162000e55600085018262000aae565b50602082015162000e6a602085018262000ad3565b50505050565b600062000e7e838362000e3d565b60408301905092915050565b6000602082019050919050565b600062000ea48262000e11565b62000eb0818562000e1c565b935062000ebd8362000e2d565b8060005b8381101562000ef457815162000ed8888262000e70565b975062000ee58362000e8a565b92505060018101905062000ec1565b5085935050505092915050565b6000602082019050818103600083015262000f1d818462000e97565b905092915050565b600082825260208201905092915050565b7f55736572206973206e6f742077686974656c6973746564000000000000000000600082015250565b600062000f6e60178362000f25565b915062000f7b8262000f36565b602082019050919050565b6000602082019050818103600083015262000fa18162000f5f565b9050919050565b600081519050919050565b60005b8381101562000fd357808201518184015260208101905062000fb6565b60008484015250505050565b600062000fec8262000fa8565b62000ff8818562000f25565b93506200100a81856020860162000fb3565b6200101581620007d2565b840191505092915050565b600060608201905062001037600083018662000de3565b81810360208301526200104b818562000fdf565b9050818103604083015262001061818462000fdf565b9050949350505050565b62001076816200092a565b82525050565b6000620010898262000a86565b9050919050565b6200109b816200107c565b82525050565b60006080820190508181036000830152620010bd818762000fdf565b90508181036020830152620010d3818662000fdf565b9050620010e460408301856200106b565b620010f3606083018462001090565b95945050505050565b7f4f6e6c79204150492063616e2063616c6c20746869732066756e6374696f6e00600082015250565b600062001134601f8362000f25565b91506200114182620010fc565b602082019050919050565b60006020820190508181036000830152620011678162001125565b905091905056fe60806040523480156200001157600080fd5b50604051620009fc380380620009fc83398181016040528101906200003791906200029c565b826000806101000a81548173ffffffffffffffffffffffffffffffffffffffff021916908373ffffffffffffffffffffffffffffffffffffffff160217905550816001908162000088919062000581565b5080600290816200009a919062000581565b5050505062000668565b6000604051905090565b600080fd5b600080fd5b600073ffffffffffffffffffffffffffffffffffffffff82169050919050565b6000620000e582620000b8565b9050919050565b620000f781620000d8565b81146200010357600080fd5b50565b6000815190506200011781620000ec565b92915050565b600080fd5b600080fd5b6000601f19601f8301169050919050565b7f4e487b7100000000000000000000000000000000000000000000000000000000600052604160045260246000fd5b620001728262000127565b810181811067ffffffffffffffff8211171562000194576200019362000138565b5b80604052505050565b6000620001a9620000a4565b9050620001b7828262000167565b919050565b600067ffffffffffffffff821115620001da57620001d962000138565b5b620001e58262000127565b9050602081019050919050565b60005b8381101562000212578082015181840152602081019050620001f5565b60008484015250505050565b6000620002356200022f84620001bc565b6200019d565b90508281526020810184848401111562000254576200025362000122565b5b62000261848285620001f2565b509392505050565b600082601f8301126200028157620002806200011d565b5b8151620002938482602086016200021e565b91505092915050565b600080600060608486031215620002b857620002b7620000ae565b5b6000620002c88682870162000106565b935050602084015167ffffffffffffffff811115620002ec57620002eb620000b3565b5b620002fa8682870162000269565b925050604084015167ffffffffffffffff8111156200031e576200031d620000b3565b5b6200032c8682870162000269565b9150509250925092565b600081519050919050565b7f4e487b7100000000000000000000000000000000000000000000000000000000600052602260045260246000fd5b600060028204905060018216806200038957607f821691505b6020821081036200039f576200039e62000341565b5b50919050565b60008190508160005260206000209050919050565b60006020601f8301049050919050565b600082821b905092915050565b600060088302620004097fffffffffffffffffffffffffffffffffffffffffffffffffffffffffffffffff82620003ca565b620004158683620003ca565b95508019841693508086168417925050509392505050565b6000819050919050565b6000819050919050565b6000620004626200045c62000456846200042d565b62000437565b6200042d565b9050919050565b6000819050919050565b6200047e8362000441565b620004966200048d8262000469565b848454620003d7565b825550505050565b600090565b620004ad6200049e565b620004ba81848462000473565b505050565b5b81811015620004e257620004d6600082620004a3565b600181019050620004c0565b5050565b601f8211156200053157620004fb81620003a5565b6200050684620003ba565b8101602085101562000516578190505b6200052e6200052585620003ba565b830182620004bf565b50505b505050565b600082821c905092915050565b6000620005566000198460080262000536565b1980831691505092915050565b600062000571838362000543565b9150826002028217905092915050565b6200058c8262000336565b67ffffffffffffffff811115620005a857620005a762000138565b5b620005b4825462000370565b620005c1828285620004e6565b600060209050601f831160018114620005f95760008415620005e4578287015190505b620005f0858262000563565b86555062000660565b601f1984166200060986620003a5565b60005b8281101562000633578489015182556001820191506020850194506020810190506200060c565b868310156200065357848901516200064f601f89168262000543565b8355505b6001600288020188555050505b505050505050565b61038480620006786000396000f3fe608060405234801561001057600080fd5b50600436106100415760003560e01c80634a79d50c146100465780637284e416146100645780638da5cb5b14610082575b600080fd5b61004e6100a0565b60405161005b9190610270565b60405180910390f35b61006c61012e565b6040516100799190610270565b60405180910390f35b61008a6101bc565b60405161009791906102d3565b60405180910390f35b600180546100ad9061031d565b80601f01602080910402602001604051908101604052809291908181526020018280546100d99061031d565b80156101265780601f106100fb57610100808354040283529160200191610126565b820191906000526020600020905b81548152906001019060200180831161010957829003601f168201915b505050505081565b6002805461013b9061031d565b80601f01602080910402602001604051908101604052809291908181526020018280546101679061031d565b80156101b45780601f10610189576101008083540402835291602001916101b4565b820191906000526020600020905b81548152906001019060200180831161019757829003601f168201915b505050505081565b60008054906101000a900473ffffffffffffffffffffffffffffffffffffffff1681565b600081519050919050565b600082825260208201905092915050565b60005b8381101561021a5780820151818401526020810190506101ff565b60008484015250505050565b6000601f19601f8301169050919050565b6000610242826101e0565b61024c81856101eb565b935061025c8185602086016101fc565b61026581610226565b840191505092915050565b6000602082019050818103600083015261028a8184610237565b905092915050565b600073ffffffffffffffffffffffffffffffffffffffff82169050919050565b60006102bd82610292565b9050919050565b6102cd816102b2565b82525050565b60006020820190506102e860008301846102c4565b92915050565b7f4e487b7100000000000000000000000000000000000000000000000000000000600052602260045260246000fd5b6000600282049050600182168061033557607f821691505b602082108103610348576103476102ee565b5b5091905056fea2646970667358221220f116b3dbf36df78c5349564f74ec153447bbb792ab6b56efb1b0de9e66640cc264736f6c6343000817003360806040523480156200001157600080fd5b5060405162001ab638038062001ab68339818101604052810190620000379190620005c0565b838381600390816200004a9190620008b1565b5080600490816200005c9190620008b1565b505050620000713383620000bc60201b60201c565b80600560006101000a81548173ffffffffffffffffffffffffffffffffffffffff021916908373ffffffffffffffffffffffffffffffffffffffff1602179055505050505062000a9b565b600073ffffffffffffffffffffffffffffffffffffffff168273ffffffffffffffffffffffffffffffffffffffff1603620001315760006040517fec442f05000000000000000000000000000000000000000000000000000000008152600401620001289190620009a9565b60405180910390fd5b62000145600083836200014960201b60201c565b5050565b600073ffffffffffffffffffffffffffffffffffffffff168373ffffffffffffffffffffffffffffffffffffffff16036200019f578060026000828254620001929190620009f5565b9250508190555062000275565b60008060008573ffffffffffffffffffffffffffffffffffffffff1673ffffffffffffffffffffffffffffffffffffffff168152602001908152602001600020549050818110156200022e578381836040517fe450d38c000000000000000000000000000000000000000000000000000000008152600401620002259392919062000a41565b60405180910390fd5b8181036000808673ffffffffffffffffffffffffffffffffffffffff1673ffffffffffffffffffffffffffffffffffffffff16815260200190815260200160002081905550505b600073ffffffffffffffffffffffffffffffffffffffff168273ffffffffffffffffffffffffffffffffffffffff1603620002c057806002600082825403925050819055506200030d565b806000808473ffffffffffffffffffffffffffffffffffffffff1673ffffffffffffffffffffffffffffffffffffffff168152602001908152602001600020600082825401925050819055505b8173ffffffffffffffffffffffffffffffffffffffff168373ffffffffffffffffffffffffffffffffffffffff167fddf252ad1be2c89b69c2b068fc378daa952ba7f163c4a11628f55a4df523b3ef836040516200036c919062000a7e565b60405180910390a3505050565b6000604051905090565b600080fd5b600080fd5b600080fd5b600080fd5b6000601f19601f8301169050919050565b7f4e487b7100000000000000000000000000000000000000000000000000000000600052604160045260246000fd5b620003e28262000397565b810181811067ffffffffffffffff82111715620004045762000403620003a8565b5b80604052505050565b60006200041962000379565b9050620004278282620003d7565b919050565b600067ffffffffffffffff8211156200044a5762000449620003a8565b5b620004558262000397565b9050602081019050919050565b60005b838110156200048257808201518184015260208101905062000465565b60008484015250505050565b6000620004a56200049f846200042c565b6200040d565b905082815260208101848484011115620004c457620004c362000392565b5b620004d184828562000462565b509392505050565b600082601f830112620004f157620004f06200038d565b5b8151620005038482602086016200048e565b91505092915050565b6000819050919050565b62000521816200050c565b81146200052d57600080fd5b50565b600081519050620005418162000516565b92915050565b600073ffffffffffffffffffffffffffffffffffffffff82169050919050565b6000620005748262000547565b9050919050565b6000620005888262000567565b9050919050565b6200059a816200057b565b8114620005a657600080fd5b50565b600081519050620005ba816200058f565b92915050565b60008060008060808587031215620005dd57620005dc62000383565b5b600085015167ffffffffffffffff811115620005fe57620005fd62000388565b5b6200060c87828801620004d9565b945050602085015167ffffffffffffffff81111562000630576200062f62000388565b5b6200063e87828801620004d9565b9350506040620006518782880162000530565b92505060606200066487828801620005a9565b91505092959194509250565b600081519050919050565b7f4e487b7100000000000000000000000000000000000000000000000000000000600052602260045260246000fd5b60006002820490506001821680620006c357607f821691505b602082108103620006d957620006d86200067b565b5b50919050565b60008190508160005260206000209050919050565b60006020601f8301049050919050565b600082821b905092915050565b600060088302620007437fffffffffffffffffffffffffffffffffffffffffffffffffffffffffffffffff8262000704565b6200074f868362000704565b95508019841693508086168417925050509392505050565b6000819050919050565b6000620007926200078c62000786846200050c565b62000767565b6200050c565b9050919050565b6000819050919050565b620007ae8362000771565b620007c6620007bd8262000799565b84845462000711565b825550505050565b600090565b620007dd620007ce565b620007ea818484620007a3565b505050565b5b81811015620008125762000806600082620007d3565b600181019050620007f0565b5050565b601f82111562000861576200082b81620006df565b6200083684620006f4565b8101602085101562000846578190505b6200085e6200085585620006f4565b830182620007ef565b50505b505050565b600082821c905092915050565b6000620008866000198460080262000866565b1980831691505092915050565b6000620008a1838362000873565b9150826002028217905092915050565b620008bc8262000670565b67ffffffffffffffff811115620008d857620008d7620003a8565b5b620008e48254620006aa565b620008f182828562000816565b600060209050601f83116001811462000929576000841562000914578287015190505b62000920858262000893565b86555062000990565b601f1984166200093986620006df565b60005b8281101562000963578489015182556001820191506020850194506020810190506200093c565b868310156200098357848901516200097f601f89168262000873565b8355505b6001600288020188555050505b505050505050565b620009a38162000567565b82525050565b6000602082019050620009c0600083018462000998565b92915050565b7f4e487b7100000000000000000000000000000000000000000000000000000000600052601160045260246000fd5b600062000a02826200050c565b915062000a0f836200050c565b925082820190508082111562000a2a5762000a29620009c6565b5b92915050565b62000a3b816200050c565b82525050565b600060608201905062000a58600083018662000998565b62000a67602083018562000a30565b62000a76604083018462000a30565b949350505050565b600060208201905062000a95600083018462000a30565b92915050565b61100b8062000aab6000396000f3fe608060405234801561001057600080fd5b50600436106100935760003560e01c8063313ce56711610066578063313ce5671461013457806370a082311461015257806395d89b4114610182578063a9059cbb146101a0578063dd62ed3e146101d057610093565b806306fdde0314610098578063095ea7b3146100b657806318160ddd146100e657806323b872dd14610104575b600080fd5b6100a0610200565b6040516100ad9190610b9a565b60405180910390f35b6100d060048036038101906100cb9190610c55565b610292565b6040516100dd9190610cb0565b60405180910390f35b6100ee6102b5565b6040516100fb9190610cda565b60405180910390f35b61011e60048036038101906101199190610cf5565b6102bf565b60405161012b9190610cb0565b60405180910390f35b61013c6102ee565b6040516101499190610d64565b60405180910390f35b61016c60048036038101906101679190610d7f565b6102f7565b6040516101799190610cda565b60405180910390f35b61018a61033f565b6040516101979190610b9a565b60405180910390f35b6101ba60048036038101906101b59190610c55565b6103d1565b6040516101c79190610cb0565b60405180910390f35b6101ea60048036038101906101e59190610dac565b6104c2565b6040516101f79190610cda565b60405180910390f35b60606003805461020f90610e1b565b80601f016020809104026020016040519081016040528092919081815260200182805461023b90610e1b565b80156102885780601f1061025d57610100808354040283529160200191610288565b820191906000526020600020905b81548152906001019060200180831161026b57829003601f168201915b5050505050905090565b60008061029d610549565b90506102aa818585610551565b600191505092915050565b6000600254905090565b6000806102ca610549565b90506102d7858285610563565b6102e28585856105f7565b60019150509392505050565b60006012905090565b60008060008373ffffffffffffffffffffffffffffffffffffffff1673ffffffffffffffffffffffffffffffffffffffff168152602001908152602001600020549050919050565b60606004805461034e90610e1b565b80601f016020809104026020016040519081016040528092919081815260200182805461037a90610e1b565b80156103c75780601f1061039c576101008083540402835291602001916103c7565b820191906000526020600020905b8154815290600101906020018083116103aa57829003601f168201915b5050505050905090565b600082600560009054906101000a900473ffffffffffffffffffffffffffffffffffffffff1673ffffffffffffffffffffffffffffffffffffffff16633af32abf826040518263ffffffff1660e01b815260040161042f9190610e5b565b602060405180830381865afa15801561044c573d6000803e3d6000fd5b505050506040513d601f19601f820116820180604052508101906104709190610ea2565b6104af576040517f08c379a00000000000000000000000000000000000000000000000000000000081526004016104a690610f1b565b60405180910390fd5b6104b984846106eb565b91505092915050565b6000600160008473ffffffffffffffffffffffffffffffffffffffff1673ffffffffffffffffffffffffffffffffffffffff16815260200190815260200160002060008373ffffffffffffffffffffffffffffffffffffffff1673ffffffffffffffffffffffffffffffffffffffff16815260200190815260200160002054905092915050565b600033905090565b61055e838383600161070e565b505050565b600061056f84846104c2565b90507fffffffffffffffffffffffffffffffffffffffffffffffffffffffffffffffff81146105f157818110156105e1578281836040517ffb8f41b20000000000000000000000000000000000000000000000000000000081526004016105d893929190610f3b565b60405180910390fd5b6105f08484848403600061070e565b5b50505050565b600073ffffffffffffffffffffffffffffffffffffffff168373ffffffffffffffffffffffffffffffffffffffff16036106695760006040517f96c6fd1e0000000000000000000000000000000000000000000000000000000081526004016106609190610e5b565b60405180910390fd5b600073ffffffffffffffffffffffffffffffffffffffff168273ffffffffffffffffffffffffffffffffffffffff16036106db5760006040517fec442f050000000000000000000000000000000000000000000000000000000081526004016106d29190610e5b565b60405180910390fd5b6106e68383836108e5565b505050565b6000806106f6610549565b90506107038185856105f7565b600191505092915050565b600073ffffffffffffffffffffffffffffffffffffffff168473ffffffffffffffffffffffffffffffffffffffff16036107805760006040517fe602df050000000000000000000000000000000000000000000000000000000081526004016107779190610e5b565b60405180910390fd5b600073ffffffffffffffffffffffffffffffffffffffff168373ffffffffffffffffffffffffffffffffffffffff16036107f25760006040517f94280d620000000000000000000000000000000000000000000000000000000081526004016107e99190610e5b565b60405180910390fd5b81600160008673ffffffffffffffffffffffffffffffffffffffff1673ffffffffffffffffffffffffffffffffffffffff16815260200190815260200160002060008573ffffffffffffffffffffffffffffffffffffffff1673ffffffffffffffffffffffffffffffffffffffff1681526020019081526020016000208190555080156108df578273ffffffffffffffffffffffffffffffffffffffff168473ffffffffffffffffffffffffffffffffffffffff167f8c5be1e5ebec7d5bd14f71427d1e84f3dd0314c0f7b2291e5b200ac8c7c3b925846040516108d69190610cda565b60405180910390a35b50505050565b600073ffffffffffffffffffffffffffffffffffffffff168373ffffffffffffffffffffffffffffffffffffffff160361093757806002600082825461092b9190610fa1565b92505081905550610a0a565b60008060008573ffffffffffffffffffffffffffffffffffffffff1673ffffffffffffffffffffffffffffffffffffffff168152602001908152602001600020549050818110156109c3578381836040517fe450d38c0000000000000000000000000000000000000000000000000000000081526004016109ba93929190610f3b565b60405180910390fd5b8181036000808673ffffffffffffffffffffffffffffffffffffffff1673ffffffffffffffffffffffffffffffffffffffff16815260200190815260200160002081905550505b600073ffffffffffffffffffffffffffffffffffffffff168273ffffffffffffffffffffffffffffffffffffffff1603610a535780600260008282540392505081905550610aa0565b806000808473ffffffffffffffffffffffffffffffffffffffff1673ffffffffffffffffffffffffffffffffffffffff168152602001908152602001600020600082825401925050819055505b8173ffffffffffffffffffffffffffffffffffffffff168373ffffffffffffffffffffffffffffffffffffffff167fddf252ad1be2c89b69c2b068fc378daa952ba7f163c4a11628f55a4df523b3ef83604051610afd9190610cda565b60405180910390a3505050565b600081519050919050565b600082825260208201905092915050565b60005b83811015610b44578082015181840152602081019050610b29565b60008484015250505050565b6000601f19601f8301169050919050565b6000610b6c82610b0a565b610b768185610b15565b9350610b86818560208601610b26565b610b8f81610b50565b840191505092915050565b60006020820190508181036000830152610bb48184610b61565b905092915050565b600080fd5b600073ffffffffffffffffffffffffffffffffffffffff82169050919050565b6000610bec82610bc1565b9050919050565b610bfc81610be1565b8114610c0757600080fd5b50565b600081359050610c1981610bf3565b92915050565b6000819050919050565b610c3281610c1f565b8114610c3d57600080fd5b50565b600081359050610c4f81610c29565b92915050565b60008060408385031215610c6c57610c6b610bbc565b5b6000610c7a85828601610c0a565b9250506020610c8b85828601610c40565b9150509250929050565b60008115159050919050565b610caa81610c95565b82525050565b6000602082019050610cc56000830184610ca1565b92915050565b610cd481610c1f565b82525050565b6000602082019050610cef6000830184610ccb565b92915050565b600080600060608486031215610d0e57610d0d610bbc565b5b6000610d1c86828701610c0a565b9350506020610d2d86828701610c0a565b9250506040610d3e86828701610c40565b9150509250925092565b600060ff82169050919050565b610d5e81610d48565b82525050565b6000602082019050610d796000830184610d55565b92915050565b600060208284031215610d9557610d94610bbc565b5b6000610da384828501610c0a565b91505092915050565b60008060408385031215610dc357610dc2610bbc565b5b6000610dd185828601610c0a565b9250506020610de285828601610c0a565b9150509250929050565b7f4e487b7100000000000000000000000000000000000000000000000000000000600052602260045260246000fd5b60006002820490506001821680610e3357607f821691505b602082108103610e4657610e45610dec565b5b50919050565b610e5581610be1565b82525050565b6000602082019050610e706000830184610e4c565b92915050565b610e7f81610c95565b8114610e8a57600080fd5b50565b600081519050610e9c81610e76565b92915050565b600060208284031215610eb857610eb7610bbc565b5b6000610ec684828501610e8d565b91505092915050565b7f55736572206973206e6f742077686974656c6973746564000000000000000000600082015250565b6000610f05601783610b15565b9150610f1082610ecf565b602082019050919050565b60006020820190508181036000830152610f3481610ef8565b9050919050565b6000606082019050610f506000830186610e4c565b610f5d6020830185610ccb565b610f6a6040830184610ccb565b949350505050565b7f4e487b7100000000000000000000000000000000000000000000000000000000600052601160045260246000fd5b6000610fac82610c1f565b9150610fb783610c1f565b9250828201905080821115610fcf57610fce610f72565b5b9291505056fea26469706673582212209fd0c3484a62b23ead4cf98be9498228d626b3c2e3098a056103fd081f5c790f64736f6c63430008170033a26469706673582212205710d3b9f446789247a8578099bbbe8ce93d20253f186f0236ccfc39e2210b1864736f6c63430008170033",
  "linkReferences": {},
  "deployedLinkReferences": {}
}