{
  "_format": "hh-sol-artifact-1",
  "contractName": "ProjectTokenFactory",
  "sourceName": "contracts/ProjectTokenFactory.sol",
  "abi": [
    {
      "inputs": [
        {
          "internalType": "address",
          "name": "_apiAddress",
          "type": "address"
        }
      ],
      "stateMutability": "nonpayable",
      "type": "constructor"
    },
    {
      "anonymous": false,
      "inputs": [
        {
          "indexed": false,
          "internalType": "enum ProjectTokenFactory.WhitelistStatus",
          "name": "s",
          "type": "uint8"
        }
      ],
      "name": "UserWhitelistStatus",
      "type": "event"
    },
    {
      "inputs": [],
      "name": "apiAddress",
      "outputs": [
        {
          "internalType": "address",
          "name": "",
          "type": "address"
        }
      ],
      "stateMutability": "view",
      "type": "function"
    },
    {
      "inputs": [
        {
          "internalType": "string",
          "name": "_title",
          "type": "string"
        },
        {
          "internalType": "string",
          "name": "_description",
          "type": "string"
        },
        {
          "internalType": "string",
          "name": "_symbol",
          "type": "string"
        },
        {
          "internalType": "uint256",
          "name": "_initialValuation",
          "type": "uint256"
        },
        {
          "internalType": "uint256",
          "name": "_initialTokenNumber",
          "type": "uint256"
        }
      ],
      "name": "createProject",
      "outputs": [
        {
          "components": [
            {
              "components": [
                {
                  "internalType": "address",
                  "name": "owner",
                  "type": "address"
                },
                {
                  "internalType": "string",
                  "name": "title",
                  "type": "string"
                },
                {
                  "internalType": "string",
                  "name": "description",
                  "type": "string"
                },
                {
                  "internalType": "uint256",
                  "name": "initialValuation",
                  "type": "uint256"
                },
                {
                  "internalType": "uint256",
                  "name": "initialTokenNumber",
                  "type": "uint256"
                }
              ],
              "internalType": "struct ProjectTokenFactory.ProjectStruct",
              "name": "project",
              "type": "tuple"
            },
            {
              "internalType": "contract ProjectToken",
              "name": "token",
              "type": "address"
            }
          ],
          "internalType": "struct ProjectTokenFactory.ProjectAndToken",
          "name": "",
          "type": "tuple"
        }
      ],
      "stateMutability": "nonpayable",
      "type": "function"
    },
    {
      "inputs": [],
      "name": "getProjects",
      "outputs": [
        {
          "components": [
            {
              "components": [
                {
                  "internalType": "address",
                  "name": "owner",
                  "type": "address"
                },
                {
                  "internalType": "string",
                  "name": "title",
                  "type": "string"
                },
                {
                  "internalType": "string",
                  "name": "description",
                  "type": "string"
                },
                {
                  "internalType": "uint256",
                  "name": "initialValuation",
                  "type": "uint256"
                },
                {
                  "internalType": "uint256",
                  "name": "initialTokenNumber",
                  "type": "uint256"
                }
              ],
              "internalType": "struct ProjectTokenFactory.ProjectStruct",
              "name": "project",
              "type": "tuple"
            },
            {
              "internalType": "contract ProjectToken",
              "name": "token",
              "type": "address"
            }
          ],
          "internalType": "struct ProjectTokenFactory.ProjectAndToken[]",
          "name": "",
          "type": "tuple[]"
        }
      ],
      "stateMutability": "view",
      "type": "function"
    },
    {
      "inputs": [
        {
          "internalType": "address",
          "name": "userAddress",
          "type": "address"
        }
      ],
      "name": "isWhitelisted",
      "outputs": [
        {
          "internalType": "bool",
          "name": "",
          "type": "bool"
        }
      ],
      "stateMutability": "view",
      "type": "function"
    },
    {
      "inputs": [
        {
          "internalType": "address",
          "name": "",
          "type": "address"
        }
      ],
      "name": "whitelist",
      "outputs": [
        {
          "internalType": "enum ProjectTokenFactory.WhitelistStatus",
          "name": "",
          "type": "uint8"
        }
      ],
      "stateMutability": "view",
      "type": "function"
    },
    {
      "inputs": [
        {
          "internalType": "address",
          "name": "userAddress",
          "type": "address"
        },
        {
          "internalType": "enum ProjectTokenFactory.WhitelistStatus",
          "name": "status",
          "type": "uint8"
        }
      ],
      "name": "whitelistUser",
      "outputs": [],
      "stateMutability": "nonpayable",
      "type": "function"
    }
  ],
  "bytecode": "0x60806040523480156200001157600080fd5b50604051620030ed380380620030ed8339818101604052810190620000379190620000e8565b806000806101000a81548173ffffffffffffffffffffffffffffffffffffffff021916908373ffffffffffffffffffffffffffffffffffffffff160217905550506200011a565b600080fd5b600073ffffffffffffffffffffffffffffffffffffffff82169050919050565b6000620000b08262000083565b9050919050565b620000c281620000a3565b8114620000ce57600080fd5b50565b600081519050620000e281620000b7565b92915050565b6000602082840312156200010157620001006200007e565b5b60006200011184828501620000d1565b91505092915050565b612fc3806200012a6000396000f3fe60806040523480156200001157600080fd5b50600436106200006a5760003560e01c8063056c29ee146200006f5780632e9894cb14620000a55780633af32abf14620000c55780639b19251a14620000fb578063dcc601281462000131578063e546bb0c1462000153575b600080fd5b6200008d600480360381019062000087919062000a3e565b62000175565b6040516200009c919062000d35565b60405180910390f35b620000c36004803603810190620000bd919062000db2565b62000399565b005b620000e36004803603810190620000dd919062000df9565b620004d3565b604051620000f2919062000e48565b60405180910390f35b62000119600480360381019062000113919062000df9565b62000555565b60405162000128919062000ee5565b60405180910390f35b6200013b62000575565b6040516200014a919062001013565b60405180910390f35b6200015d620007de565b6040516200016c919062001048565b60405180910390f35b6200017f62000802565b336200018b81620004d3565b620001cd576040517f08c379a0000000000000000000000000000000000000000000000000000000008152600401620001c490620010c6565b60405180910390fd5b60006040518060a001604052803373ffffffffffffffffffffffffffffffffffffffff168152602001898152602001888152602001868152602001858152509050600033898860405162000221906200083a565b6200022f9392919062001129565b604051809103906000f0801580156200024c573d6000803e3d6000fd5b509050600060405180604001604052808481526020018373ffffffffffffffffffffffffffffffffffffffff168152509050600281908060018154018082558091505060019003906000526020600020906006020160009091909190915060008201518160000160008201518160000160006101000a81548173ffffffffffffffffffffffffffffffffffffffff021916908373ffffffffffffffffffffffffffffffffffffffff1602179055506020820151816001019081620003119190620013a0565b506040820151816002019081620003299190620013a0565b506060820151816003015560808201518160040155505060208201518160050160006101000a81548173ffffffffffffffffffffffffffffffffffffffff021916908373ffffffffffffffffffffffffffffffffffffffff16021790555050508094505050505095945050505050565b3360008054906101000a900473ffffffffffffffffffffffffffffffffffffffff1673ffffffffffffffffffffffffffffffffffffffff168173ffffffffffffffffffffffffffffffffffffffff16146200042b576040517f08c379a00000000000000000000000000000000000000000000000000000000081526004016200042290620014d7565b60405180910390fd5b81600160008573ffffffffffffffffffffffffffffffffffffffff1673ffffffffffffffffffffffffffffffffffffffff16815260200190815260200160002060006101000a81548160ff0219169083600281111562000490576200048f62000e65565b5b02179055507f2abb005b6f5d3edae52a8a6f38b81c232c758a519ae567a5295de8a048b4475982604051620004c6919062000ee5565b60405180910390a1505050565b6000600280811115620004eb57620004ea62000e65565b5b600160008473ffffffffffffffffffffffffffffffffffffffff1673ffffffffffffffffffffffffffffffffffffffff16815260200190815260200160002060009054906101000a900460ff1660028111156200054d576200054c62000e65565b5b149050919050565b60016020528060005260406000206000915054906101000a900460ff1681565b60606002805480602002602001604051908101604052809291908181526020016000905b82821015620007d55783829060005260206000209060060201604051806040016040529081600082016040518060a00160405290816000820160009054906101000a900473ffffffffffffffffffffffffffffffffffffffff1673ffffffffffffffffffffffffffffffffffffffff1673ffffffffffffffffffffffffffffffffffffffff1681526020016001820180546200063590620011a3565b80601f01602080910402602001604051908101604052809291908181526020018280546200066390620011a3565b8015620006b45780601f106200068857610100808354040283529160200191620006b4565b820191906000526020600020905b8154815290600101906020018083116200069657829003601f168201915b50505050508152602001600282018054620006cf90620011a3565b80601f0160208091040260200160405190810160405280929190818152602001828054620006fd90620011a3565b80156200074e5780601f1062000722576101008083540402835291602001916200074e565b820191906000526020600020905b8154815290600101906020018083116200073057829003601f168201915b505050505081526020016003820154815260200160048201548152505081526020016005820160009054906101000a900473ffffffffffffffffffffffffffffffffffffffff1673ffffffffffffffffffffffffffffffffffffffff1673ffffffffffffffffffffffffffffffffffffffff16815250508152602001906001019062000599565b50505050905090565b60008054906101000a900473ffffffffffffffffffffffffffffffffffffffff1681565b60405180604001604052806200081762000848565b8152602001600073ffffffffffffffffffffffffffffffffffffffff1681525090565b611a9480620014fa83390190565b6040518060a00160405280600073ffffffffffffffffffffffffffffffffffffffff168152602001606081526020016060815260200160008152602001600081525090565b6000604051905090565b600080fd5b600080fd5b600080fd5b600080fd5b6000601f19601f8301169050919050565b7f4e487b7100000000000000000000000000000000000000000000000000000000600052604160045260246000fd5b620008f682620008ab565b810181811067ffffffffffffffff82111715620009185762000917620008bc565b5b80604052505050565b60006200092d6200088d565b90506200093b8282620008eb565b919050565b600067ffffffffffffffff8211156200095e576200095d620008bc565b5b6200096982620008ab565b9050602081019050919050565b82818337600083830152505050565b60006200099c620009968462000940565b62000921565b905082815260208101848484011115620009bb57620009ba620008a6565b5b620009c884828562000976565b509392505050565b600082601f830112620009e857620009e7620008a1565b5b8135620009fa84826020860162000985565b91505092915050565b6000819050919050565b62000a188162000a03565b811462000a2457600080fd5b50565b60008135905062000a388162000a0d565b92915050565b600080600080600060a0868803121562000a5d5762000a5c62000897565b5b600086013567ffffffffffffffff81111562000a7e5762000a7d6200089c565b5b62000a8c88828901620009d0565b955050602086013567ffffffffffffffff81111562000ab05762000aaf6200089c565b5b62000abe88828901620009d0565b945050604086013567ffffffffffffffff81111562000ae25762000ae16200089c565b5b62000af088828901620009d0565b935050606062000b038882890162000a27565b925050608062000b168882890162000a27565b9150509295509295909350565b600073ffffffffffffffffffffffffffffffffffffffff82169050919050565b600062000b508262000b23565b9050919050565b62000b628162000b43565b82525050565b600081519050919050565b600082825260208201905092915050565b60005b8381101562000ba457808201518184015260208101905062000b87565b60008484015250505050565b600062000bbd8262000b68565b62000bc9818562000b73565b935062000bdb81856020860162000b84565b62000be681620008ab565b840191505092915050565b62000bfc8162000a03565b82525050565b600060a08301600083015162000c1c600086018262000b57565b506020830151848203602086015262000c36828262000bb0565b9150506040830151848203604086015262000c52828262000bb0565b915050606083015162000c69606086018262000bf1565b50608083015162000c7e608086018262000bf1565b508091505092915050565b6000819050919050565b600062000cb462000cae62000ca88462000b23565b62000c89565b62000b23565b9050919050565b600062000cc88262000c93565b9050919050565b600062000cdc8262000cbb565b9050919050565b62000cee8162000ccf565b82525050565b6000604083016000830151848203600086015262000d13828262000c02565b915050602083015162000d2a602086018262000ce3565b508091505092915050565b6000602082019050818103600083015262000d51818462000cf4565b905092915050565b62000d648162000b43565b811462000d7057600080fd5b50565b60008135905062000d848162000d59565b92915050565b6003811062000d9857600080fd5b50565b60008135905062000dac8162000d8a565b92915050565b6000806040838503121562000dcc5762000dcb62000897565b5b600062000ddc8582860162000d73565b925050602062000def8582860162000d9b565b9150509250929050565b60006020828403121562000e125762000e1162000897565b5b600062000e228482850162000d73565b91505092915050565b60008115159050919050565b62000e428162000e2b565b82525050565b600060208201905062000e5f600083018462000e37565b92915050565b7f4e487b7100000000000000000000000000000000000000000000000000000000600052602160045260246000fd5b6003811062000ea85762000ea762000e65565b5b50565b600081905062000ebb8262000e94565b919050565b600062000ecd8262000eab565b9050919050565b62000edf8162000ec0565b82525050565b600060208201905062000efc600083018462000ed4565b92915050565b600081519050919050565b600082825260208201905092915050565b6000819050602082019050919050565b6000604083016000830151848203600086015262000f4d828262000c02565b915050602083015162000f64602086018262000ce3565b508091505092915050565b600062000f7d838362000f2e565b905092915050565b6000602082019050919050565b600062000f9f8262000f02565b62000fab818562000f0d565b93508360208202850162000fbf8562000f1e565b8060005b8581101562001001578484038952815162000fdf858262000f6f565b945062000fec8362000f85565b925060208a0199505060018101905062000fc3565b50829750879550505050505092915050565b600060208201905081810360008301526200102f818462000f92565b905092915050565b620010428162000b43565b82525050565b60006020820190506200105f600083018462001037565b92915050565b600082825260208201905092915050565b7f55736572206973206e6f742077686974656c6973746564000000000000000000600082015250565b6000620010ae60178362001065565b9150620010bb8262001076565b602082019050919050565b60006020820190508181036000830152620010e1816200109f565b9050919050565b6000620010f58262000b68565b62001101818562001065565b93506200111381856020860162000b84565b6200111e81620008ab565b840191505092915050565b600060608201905062001140600083018662001037565b8181036020830152620011548185620010e8565b905081810360408301526200116a8184620010e8565b9050949350505050565b7f4e487b7100000000000000000000000000000000000000000000000000000000600052602260045260246000fd5b60006002820490506001821680620011bc57607f821691505b602082108103620011d257620011d162001174565b5b50919050565b60008190508160005260206000209050919050565b60006020601f8301049050919050565b600082821b905092915050565b6000600883026200123c7fffffffffffffffffffffffffffffffffffffffffffffffffffffffffffffffff82620011fd565b620012488683620011fd565b95508019841693508086168417925050509392505050565b6000620012816200127b620012758462000a03565b62000c89565b62000a03565b9050919050565b6000819050919050565b6200129d8362001260565b620012b5620012ac8262001288565b8484546200120a565b825550505050565b600090565b620012cc620012bd565b620012d981848462001292565b505050565b5b818110156200130157620012f5600082620012c2565b600181019050620012df565b5050565b601f82111562001350576200131a81620011d8565b6200132584620011ed565b8101602085101562001335578190505b6200134d6200134485620011ed565b830182620012de565b50505b505050565b600082821c905092915050565b6000620013756000198460080262001355565b1980831691505092915050565b600062001390838362001362565b9150826002028217905092915050565b620013ab8262000b68565b67ffffffffffffffff811115620013c757620013c6620008bc565b5b620013d38254620011a3565b620013e082828562001305565b600060209050601f83116001811462001418576000841562001403578287015190505b6200140f858262001382565b8655506200147f565b601f1984166200142886620011d8565b60005b8281101562001452578489015182556001820191506020850194506020810190506200142b565b868310156200147257848901516200146e601f89168262001362565b8355505b6001600288020188555050505b505050505050565b7f4f6e6c79204150492063616e2063616c6c20746869732066756e6374696f6e00600082015250565b6000620014bf601f8362001065565b9150620014cc8262001487565b602082019050919050565b60006020820190508181036000830152620014f281620014b0565b905091905056fe60806040523480156200001157600080fd5b5060405162001a9438038062001a94833981810160405281019062000037919062000563565b818181600390816200004a919062000848565b5080600490816200005c919062000848565b5050506200009c8362000074620000a560201b60201c565b600a62000082919062000abf565b606462000090919062000b10565b620000ae60201b60201c565b50505062000c2f565b60006012905090565b600073ffffffffffffffffffffffffffffffffffffffff168273ffffffffffffffffffffffffffffffffffffffff1603620001235760006040517fec442f050000000000000000000000000000000000000000000000000000000081526004016200011a919062000b6c565b60405180910390fd5b62000137600083836200013b60201b60201c565b5050565b600073ffffffffffffffffffffffffffffffffffffffff168373ffffffffffffffffffffffffffffffffffffffff16036200019157806002600082825462000184919062000b89565b9250508190555062000267565b60008060008573ffffffffffffffffffffffffffffffffffffffff1673ffffffffffffffffffffffffffffffffffffffff1681526020019081526020016000205490508181101562000220578381836040517fe450d38c000000000000000000000000000000000000000000000000000000008152600401620002179392919062000bd5565b60405180910390fd5b8181036000808673ffffffffffffffffffffffffffffffffffffffff1673ffffffffffffffffffffffffffffffffffffffff16815260200190815260200160002081905550505b600073ffffffffffffffffffffffffffffffffffffffff168273ffffffffffffffffffffffffffffffffffffffff1603620002b25780600260008282540392505081905550620002ff565b806000808473ffffffffffffffffffffffffffffffffffffffff1673ffffffffffffffffffffffffffffffffffffffff168152602001908152602001600020600082825401925050819055505b8173ffffffffffffffffffffffffffffffffffffffff168373ffffffffffffffffffffffffffffffffffffffff167fddf252ad1be2c89b69c2b068fc378daa952ba7f163c4a11628f55a4df523b3ef836040516200035e919062000c12565b60405180910390a3505050565b6000604051905090565b600080fd5b600080fd5b600073ffffffffffffffffffffffffffffffffffffffff82169050919050565b6000620003ac826200037f565b9050919050565b620003be816200039f565b8114620003ca57600080fd5b50565b600081519050620003de81620003b3565b92915050565b600080fd5b600080fd5b6000601f19601f8301169050919050565b7f4e487b7100000000000000000000000000000000000000000000000000000000600052604160045260246000fd5b6200043982620003ee565b810181811067ffffffffffffffff821117156200045b576200045a620003ff565b5b80604052505050565b6000620004706200036b565b90506200047e82826200042e565b919050565b600067ffffffffffffffff821115620004a157620004a0620003ff565b5b620004ac82620003ee565b9050602081019050919050565b60005b83811015620004d9578082015181840152602081019050620004bc565b60008484015250505050565b6000620004fc620004f68462000483565b62000464565b9050828152602081018484840111156200051b576200051a620003e9565b5b62000528848285620004b9565b509392505050565b600082601f830112620005485762000547620003e4565b5b81516200055a848260208601620004e5565b91505092915050565b6000806000606084860312156200057f576200057e62000375565b5b60006200058f86828701620003cd565b935050602084015167ffffffffffffffff811115620005b357620005b26200037a565b5b620005c18682870162000530565b925050604084015167ffffffffffffffff811115620005e557620005e46200037a565b5b620005f38682870162000530565b9150509250925092565b600081519050919050565b7f4e487b7100000000000000000000000000000000000000000000000000000000600052602260045260246000fd5b600060028204905060018216806200065057607f821691505b60208210810362000666576200066562000608565b5b50919050565b60008190508160005260206000209050919050565b60006020601f8301049050919050565b600082821b905092915050565b600060088302620006d07fffffffffffffffffffffffffffffffffffffffffffffffffffffffffffffffff8262000691565b620006dc868362000691565b95508019841693508086168417925050509392505050565b6000819050919050565b6000819050919050565b600062000729620007236200071d84620006f4565b620006fe565b620006f4565b9050919050565b6000819050919050565b620007458362000708565b6200075d620007548262000730565b8484546200069e565b825550505050565b600090565b6200077462000765565b620007818184846200073a565b505050565b5b81811015620007a9576200079d6000826200076a565b60018101905062000787565b5050565b601f821115620007f857620007c2816200066c565b620007cd8462000681565b81016020851015620007dd578190505b620007f5620007ec8562000681565b83018262000786565b50505b505050565b600082821c905092915050565b60006200081d60001984600802620007fd565b1980831691505092915050565b60006200083883836200080a565b9150826002028217905092915050565b6200085382620005fd565b67ffffffffffffffff8111156200086f576200086e620003ff565b5b6200087b825462000637565b62000888828285620007ad565b600060209050601f831160018114620008c05760008415620008ab578287015190505b620008b785826200082a565b86555062000927565b601f198416620008d0866200066c565b60005b82811015620008fa57848901518255600182019150602085019450602081019050620008d3565b868310156200091a578489015162000916601f8916826200080a565b8355505b6001600288020188555050505b505050505050565b7f4e487b7100000000000000000000000000000000000000000000000000000000600052601160045260246000fd5b60008160011c9050919050565b6000808291508390505b6001851115620009bd578086048111156200099557620009946200092f565b5b6001851615620009a55780820291505b8081029050620009b5856200095e565b945062000975565b94509492505050565b600082620009d8576001905062000aab565b81620009e8576000905062000aab565b816001811462000a01576002811462000a0c5762000a42565b600191505062000aab565b60ff84111562000a215762000a206200092f565b5b8360020a91508482111562000a3b5762000a3a6200092f565b5b5062000aab565b5060208310610133831016604e8410600b841016171562000a7c5782820a90508381111562000a765762000a756200092f565b5b62000aab565b62000a8b84848460016200096b565b9250905081840481111562000aa55762000aa46200092f565b5b81810290505b9392505050565b600060ff82169050919050565b600062000acc82620006f4565b915062000ad98362000ab2565b925062000b087fffffffffffffffffffffffffffffffffffffffffffffffffffffffffffffffff8484620009c6565b905092915050565b600062000b1d82620006f4565b915062000b2a83620006f4565b925082820262000b3a81620006f4565b9150828204841483151762000b545762000b536200092f565b5b5092915050565b62000b66816200039f565b82525050565b600060208201905062000b83600083018462000b5b565b92915050565b600062000b9682620006f4565b915062000ba383620006f4565b925082820190508082111562000bbe5762000bbd6200092f565b5b92915050565b62000bcf81620006f4565b82525050565b600060608201905062000bec600083018662000b5b565b62000bfb602083018562000bc4565b62000c0a604083018462000bc4565b949350505050565b600060208201905062000c29600083018462000bc4565b92915050565b610e558062000c3f6000396000f3fe608060405234801561001057600080fd5b50600436106100935760003560e01c8063313ce56711610066578063313ce5671461013457806370a082311461015257806395d89b4114610182578063a9059cbb146101a0578063dd62ed3e146101d057610093565b806306fdde0314610098578063095ea7b3146100b657806318160ddd146100e657806323b872dd14610104575b600080fd5b6100a0610200565b6040516100ad9190610aa9565b60405180910390f35b6100d060048036038101906100cb9190610b64565b610292565b6040516100dd9190610bbf565b60405180910390f35b6100ee6102b5565b6040516100fb9190610be9565b60405180910390f35b61011e60048036038101906101199190610c04565b6102bf565b60405161012b9190610bbf565b60405180910390f35b61013c6102ee565b6040516101499190610c73565b60405180910390f35b61016c60048036038101906101679190610c8e565b6102f7565b6040516101799190610be9565b60405180910390f35b61018a61033f565b6040516101979190610aa9565b60405180910390f35b6101ba60048036038101906101b59190610b64565b6103d1565b6040516101c79190610bbf565b60405180910390f35b6101ea60048036038101906101e59190610cbb565b6103f4565b6040516101f79190610be9565b60405180910390f35b60606003805461020f90610d2a565b80601f016020809104026020016040519081016040528092919081815260200182805461023b90610d2a565b80156102885780601f1061025d57610100808354040283529160200191610288565b820191906000526020600020905b81548152906001019060200180831161026b57829003601f168201915b5050505050905090565b60008061029d61047b565b90506102aa818585610483565b600191505092915050565b6000600254905090565b6000806102ca61047b565b90506102d7858285610495565b6102e2858585610529565b60019150509392505050565b60006012905090565b60008060008373ffffffffffffffffffffffffffffffffffffffff1673ffffffffffffffffffffffffffffffffffffffff168152602001908152602001600020549050919050565b60606004805461034e90610d2a565b80601f016020809104026020016040519081016040528092919081815260200182805461037a90610d2a565b80156103c75780601f1061039c576101008083540402835291602001916103c7565b820191906000526020600020905b8154815290600101906020018083116103aa57829003601f168201915b5050505050905090565b6000806103dc61047b565b90506103e9818585610529565b600191505092915050565b6000600160008473ffffffffffffffffffffffffffffffffffffffff1673ffffffffffffffffffffffffffffffffffffffff16815260200190815260200160002060008373ffffffffffffffffffffffffffffffffffffffff1673ffffffffffffffffffffffffffffffffffffffff16815260200190815260200160002054905092915050565b600033905090565b610490838383600161061d565b505050565b60006104a184846103f4565b90507fffffffffffffffffffffffffffffffffffffffffffffffffffffffffffffffff81146105235781811015610513578281836040517ffb8f41b200000000000000000000000000000000000000000000000000000000815260040161050a93929190610d6a565b60405180910390fd5b6105228484848403600061061d565b5b50505050565b600073ffffffffffffffffffffffffffffffffffffffff168373ffffffffffffffffffffffffffffffffffffffff160361059b5760006040517f96c6fd1e0000000000000000000000000000000000000000000000000000000081526004016105929190610da1565b60405180910390fd5b600073ffffffffffffffffffffffffffffffffffffffff168273ffffffffffffffffffffffffffffffffffffffff160361060d5760006040517fec442f050000000000000000000000000000000000000000000000000000000081526004016106049190610da1565b60405180910390fd5b6106188383836107f4565b505050565b600073ffffffffffffffffffffffffffffffffffffffff168473ffffffffffffffffffffffffffffffffffffffff160361068f5760006040517fe602df050000000000000000000000000000000000000000000000000000000081526004016106869190610da1565b60405180910390fd5b600073ffffffffffffffffffffffffffffffffffffffff168373ffffffffffffffffffffffffffffffffffffffff16036107015760006040517f94280d620000000000000000000000000000000000000000000000000000000081526004016106f89190610da1565b60405180910390fd5b81600160008673ffffffffffffffffffffffffffffffffffffffff1673ffffffffffffffffffffffffffffffffffffffff16815260200190815260200160002060008573ffffffffffffffffffffffffffffffffffffffff1673ffffffffffffffffffffffffffffffffffffffff1681526020019081526020016000208190555080156107ee578273ffffffffffffffffffffffffffffffffffffffff168473ffffffffffffffffffffffffffffffffffffffff167f8c5be1e5ebec7d5bd14f71427d1e84f3dd0314c0f7b2291e5b200ac8c7c3b925846040516107e59190610be9565b60405180910390a35b50505050565b600073ffffffffffffffffffffffffffffffffffffffff168373ffffffffffffffffffffffffffffffffffffffff160361084657806002600082825461083a9190610deb565b92505081905550610919565b60008060008573ffffffffffffffffffffffffffffffffffffffff1673ffffffffffffffffffffffffffffffffffffffff168152602001908152602001600020549050818110156108d2578381836040517fe450d38c0000000000000000000000000000000000000000000000000000000081526004016108c993929190610d6a565b60405180910390fd5b8181036000808673ffffffffffffffffffffffffffffffffffffffff1673ffffffffffffffffffffffffffffffffffffffff16815260200190815260200160002081905550505b600073ffffffffffffffffffffffffffffffffffffffff168273ffffffffffffffffffffffffffffffffffffffff160361096257806002600082825403925050819055506109af565b806000808473ffffffffffffffffffffffffffffffffffffffff1673ffffffffffffffffffffffffffffffffffffffff168152602001908152602001600020600082825401925050819055505b8173ffffffffffffffffffffffffffffffffffffffff168373ffffffffffffffffffffffffffffffffffffffff167fddf252ad1be2c89b69c2b068fc378daa952ba7f163c4a11628f55a4df523b3ef83604051610a0c9190610be9565b60405180910390a3505050565b600081519050919050565b600082825260208201905092915050565b60005b83811015610a53578082015181840152602081019050610a38565b60008484015250505050565b6000601f19601f8301169050919050565b6000610a7b82610a19565b610a858185610a24565b9350610a95818560208601610a35565b610a9e81610a5f565b840191505092915050565b60006020820190508181036000830152610ac38184610a70565b905092915050565b600080fd5b600073ffffffffffffffffffffffffffffffffffffffff82169050919050565b6000610afb82610ad0565b9050919050565b610b0b81610af0565b8114610b1657600080fd5b50565b600081359050610b2881610b02565b92915050565b6000819050919050565b610b4181610b2e565b8114610b4c57600080fd5b50565b600081359050610b5e81610b38565b92915050565b60008060408385031215610b7b57610b7a610acb565b5b6000610b8985828601610b19565b9250506020610b9a85828601610b4f565b9150509250929050565b60008115159050919050565b610bb981610ba4565b82525050565b6000602082019050610bd46000830184610bb0565b92915050565b610be381610b2e565b82525050565b6000602082019050610bfe6000830184610bda565b92915050565b600080600060608486031215610c1d57610c1c610acb565b5b6000610c2b86828701610b19565b9350506020610c3c86828701610b19565b9250506040610c4d86828701610b4f565b9150509250925092565b600060ff82169050919050565b610c6d81610c57565b82525050565b6000602082019050610c886000830184610c64565b92915050565b600060208284031215610ca457610ca3610acb565b5b6000610cb284828501610b19565b91505092915050565b60008060408385031215610cd257610cd1610acb565b5b6000610ce085828601610b19565b9250506020610cf185828601610b19565b9150509250929050565b7f4e487b7100000000000000000000000000000000000000000000000000000000600052602260045260246000fd5b60006002820490506001821680610d4257607f821691505b602082108103610d5557610d54610cfb565b5b50919050565b610d6481610af0565b82525050565b6000606082019050610d7f6000830186610d5b565b610d8c6020830185610bda565b610d996040830184610bda565b949350505050565b6000602082019050610db66000830184610d5b565b92915050565b7f4e487b7100000000000000000000000000000000000000000000000000000000600052601160045260246000fd5b6000610df682610b2e565b9150610e0183610b2e565b9250828201905080821115610e1957610e18610dbc565b5b9291505056fea26469706673582212206b3dc954610accf063adf889a23b24d51fc666dc76a5e357a06a37fc4225677c64736f6c63430008170033a2646970667358221220b59316b365bcbfa0cf8298dd04ef4afe8a2465f34526d7e0be8618991704d13964736f6c63430008170033",
  "linkReferences": {},
  "deployedLinkReferences": {}
}