{
  "_format": "hh-sol-artifact-1",
  "contractName": "ProjectTokenMarket",
  "sourceName": "contracts/ProjectTokenMarket.sol",
  "abi": [
    {
      "inputs": [
        {
          "internalType": "address",
          "name": "token",
          "type": "address"
        },
        {
          "internalType": "uint256",
          "name": "amount",
          "type": "uint256"
        },
        {
          "internalType": "uint256",
          "name": "pricePerToken",
          "type": "uint256"
        }
      ],
      "name": "addTokens",
      "outputs": [],
      "stateMutability": "payable",
      "type": "function"
    },
    {
      "inputs": [
        {
          "internalType": "contract ProjectToken",
          "name": "",
          "type": "address"
        }
      ],
      "name": "listings",
      "outputs": [
        {
          "internalType": "address",
          "name": "seller",
          "type": "address"
        },
        {
          "internalType": "uint256",
          "name": "amount",
          "type": "uint256"
        },
        {
          "internalType": "uint256",
          "name": "pricePerToken",
          "type": "uint256"
        }
      ],
      "stateMutability": "view",
      "type": "function"
    },
    {
      "inputs": [
        {
          "internalType": "address",
          "name": "token",
          "type": "address"
        },
        {
          "internalType": "uint256",
          "name": "amount",
          "type": "uint256"
        }
      ],
      "name": "purchaseTokens",
      "outputs": [],
      "stateMutability": "payable",
      "type": "function"
    }
  ],
  "bytecode": "0x608060405234801561001057600080fd5b506110e2806100206000396000f3fe6080604052600436106100345760003560e01c806322ea22311461003957806365d96c8214610055578063ca056aed14610094575b600080fd5b610053600480360381019061004e919061095d565b6100b0565b005b34801561006157600080fd5b5061007c600480360381019061007791906109db565b61041f565b60405161008b93929190610a26565b60405180910390f35b6100ae60048036038101906100a99190610a5d565b610469565b005b600082905060008211801561010657506000808273ffffffffffffffffffffffffffffffffffffffff1673ffffffffffffffffffffffffffffffffffffffff168152602001908152602001600020600101548211155b610145576040517f08c379a000000000000000000000000000000000000000000000000000000000815260040161013c90610b0d565b60405180910390fd5b6000670de0b6b3a76400006000808473ffffffffffffffffffffffffffffffffffffffff1673ffffffffffffffffffffffffffffffffffffffff168152602001908152602001600020600201548461019d9190610b5c565b6101a79190610bcd565b9050803410156101b6826106a3565b6040516020016101c69190610ce1565b60405160208183030381529060405290610216576040517f08c379a000000000000000000000000000000000000000000000000000000000815260040161020d9190610d4d565b60405180910390fd5b5060008273ffffffffffffffffffffffffffffffffffffffff1663a4475ce46040518163ffffffff1660e01b8152600401602060405180830381865afa158015610264573d6000803e3d6000fd5b505050506040513d601f19601f820116820180604052508101906102889190610d84565b90508073ffffffffffffffffffffffffffffffffffffffff163373ffffffffffffffffffffffffffffffffffffffff16036102f8576040517f08c379a00000000000000000000000000000000000000000000000000000000081526004016102ef90610dfd565b60405180910390fd5b8273ffffffffffffffffffffffffffffffffffffffff166323b872dd8233876040518463ffffffff1660e01b815260040161033593929190610e1d565b6020604051808303816000875af1158015610354573d6000803e3d6000fd5b505050506040513d601f19601f820116820180604052508101906103789190610e8c565b508073ffffffffffffffffffffffffffffffffffffffff166108fc349081150290604051600060405180830381858888f193505050501580156103bf573d6000803e3d6000fd5b50836000808573ffffffffffffffffffffffffffffffffffffffff1673ffffffffffffffffffffffffffffffffffffffff16815260200190815260200160002060010160008282546104119190610eb9565b925050819055505050505050565b60006020528060005260406000206000915090508060000160009054906101000a900473ffffffffffffffffffffffffffffffffffffffff16908060010154908060020154905083565b600082116104ac576040517f08c379a00000000000000000000000000000000000000000000000000000000081526004016104a390610f39565b60405180910390fd5b600081116104ef576040517f08c379a00000000000000000000000000000000000000000000000000000000081526004016104e690610fcb565b60405180910390fd5b60008390503373ffffffffffffffffffffffffffffffffffffffff168173ffffffffffffffffffffffffffffffffffffffff1663a4475ce46040518163ffffffff1660e01b8152600401602060405180830381865afa158015610556573d6000803e3d6000fd5b505050506040513d601f19601f8201168201806040525081019061057a9190610d84565b73ffffffffffffffffffffffffffffffffffffffff16146105d0576040517f08c379a00000000000000000000000000000000000000000000000000000000081526004016105c79061105d565b60405180910390fd5b60405180606001604052803373ffffffffffffffffffffffffffffffffffffffff168152602001848152602001838152506000808373ffffffffffffffffffffffffffffffffffffffff1673ffffffffffffffffffffffffffffffffffffffff16815260200190815260200160002060008201518160000160006101000a81548173ffffffffffffffffffffffffffffffffffffffff021916908373ffffffffffffffffffffffffffffffffffffffff160217905550602082015181600101556040820151816002015590505050505050565b6060600060016106b284610771565b01905060008167ffffffffffffffff8111156106d1576106d061107d565b5b6040519080825280601f01601f1916602001820160405280156107035781602001600182028036833780820191505090505b509050600082602001820190505b600115610766578080600190039150507f3031323334353637383961626364656600000000000000000000000000000000600a86061a8153600a858161075a57610759610b9e565b5b04945060008503610711575b819350505050919050565b600080600090507a184f03e93ff9f4daa797ed6e38ed64bf6a1f01000000000000000083106107cf577a184f03e93ff9f4daa797ed6e38ed64bf6a1f01000000000000000083816107c5576107c4610b9e565b5b0492506040810190505b6d04ee2d6d415b85acef8100000000831061080c576d04ee2d6d415b85acef8100000000838161080257610801610b9e565b5b0492506020810190505b662386f26fc10000831061083b57662386f26fc10000838161083157610830610b9e565b5b0492506010810190505b6305f5e1008310610864576305f5e100838161085a57610859610b9e565b5b0492506008810190505b612710831061088957612710838161087f5761087e610b9e565b5b0492506004810190505b606483106108ac57606483816108a2576108a1610b9e565b5b0492506002810190505b600a83106108bb576001810190505b80915050919050565b600080fd5b600073ffffffffffffffffffffffffffffffffffffffff82169050919050565b60006108f4826108c9565b9050919050565b610904816108e9565b811461090f57600080fd5b50565b600081359050610921816108fb565b92915050565b6000819050919050565b61093a81610927565b811461094557600080fd5b50565b60008135905061095781610931565b92915050565b60008060408385031215610974576109736108c4565b5b600061098285828601610912565b925050602061099385828601610948565b9150509250929050565b60006109a8826108e9565b9050919050565b6109b88161099d565b81146109c357600080fd5b50565b6000813590506109d5816109af565b92915050565b6000602082840312156109f1576109f06108c4565b5b60006109ff848285016109c6565b91505092915050565b610a11816108e9565b82525050565b610a2081610927565b82525050565b6000606082019050610a3b6000830186610a08565b610a486020830185610a17565b610a556040830184610a17565b949350505050565b600080600060608486031215610a7657610a756108c4565b5b6000610a8486828701610912565b9350506020610a9586828701610948565b9250506040610aa686828701610948565b9150509250925092565b600082825260208201905092915050565b7f43616e6e6f7420627579207468617420616d6f756e74206f6620746f6b656e73600082015250565b6000610af7602083610ab0565b9150610b0282610ac1565b602082019050919050565b60006020820190508181036000830152610b2681610aea565b9050919050565b7f4e487b7100000000000000000000000000000000000000000000000000000000600052601160045260246000fd5b6000610b6782610927565b9150610b7283610927565b9250828202610b8081610927565b91508282048414831517610b9757610b96610b2d565b5b5092915050565b7f4e487b7100000000000000000000000000000000000000000000000000000000600052601260045260246000fd5b6000610bd882610927565b9150610be383610927565b925082610bf357610bf2610b9e565b5b828204905092915050565b600081905092915050565b7f496e73756666696369656e74207061796d656e742e205265717569726564203a60008201527f2000000000000000000000000000000000000000000000000000000000000000602082015250565b6000610c65602183610bfe565b9150610c7082610c09565b602182019050919050565b600081519050919050565b60005b83811015610ca4578082015181840152602081019050610c89565b60008484015250505050565b6000610cbb82610c7b565b610cc58185610bfe565b9350610cd5818560208601610c86565b80840191505092915050565b6000610cec82610c58565b9150610cf88284610cb0565b915081905092915050565b6000601f19601f8301169050919050565b6000610d1f82610c7b565b610d298185610ab0565b9350610d39818560208601610c86565b610d4281610d03565b840191505092915050565b60006020820190508181036000830152610d678184610d14565b905092915050565b600081519050610d7e816108fb565b92915050565b600060208284031215610d9a57610d996108c4565b5b6000610da884828501610d6f565b91505092915050565b7f596f752063616e27742062757920796f7572206f776e20746f6b656e73000000600082015250565b6000610de7601d83610ab0565b9150610df282610db1565b602082019050919050565b60006020820190508181036000830152610e1681610dda565b9050919050565b6000606082019050610e326000830186610a08565b610e3f6020830185610a08565b610e4c6040830184610a17565b949350505050565b60008115159050919050565b610e6981610e54565b8114610e7457600080fd5b50565b600081519050610e8681610e60565b92915050565b600060208284031215610ea257610ea16108c4565b5b6000610eb084828501610e77565b91505092915050565b6000610ec482610927565b9150610ecf83610927565b9250828203905081811115610ee757610ee6610b2d565b5b92915050565b7f416d6f756e742073686f756c642062652067726561746572207468616e203000600082015250565b6000610f23601f83610ab0565b9150610f2e82610eed565b602082019050919050565b60006020820190508181036000830152610f5281610f16565b9050919050565b7f50726963652070657220746f6b656e2073686f756c642062652067726561746560008201527f72207468616e2030000000000000000000000000000000000000000000000000602082015250565b6000610fb5602883610ab0565b9150610fc082610f59565b604082019050919050565b60006020820190508181036000830152610fe481610fa8565b9050919050565b7f596f752073686f756c64206265207468652070726f6a656374206f776e65722060008201527f746f2073656c6c206120746f6b656e0000000000000000000000000000000000602082015250565b6000611047602f83610ab0565b915061105282610feb565b604082019050919050565b600060208201905081810360008301526110768161103a565b9050919050565b7f4e487b7100000000000000000000000000000000000000000000000000000000600052604160045260246000fdfea264697066735822122027a691aa51e6e27e54c5f2c9bfa998ec220fd120b7faacd201087290974030e864736f6c63430008170033",
  "linkReferences": {},
  "deployedLinkReferences": {}
}