{
  "_format": "hh-sol-artifact-1",
  "contractName": "ProjectTokenMarket",
  "sourceName": "contracts/ProjectTokenMarket.sol",
  "abi": [
    {
      "inputs": [
        {
          "internalType": "address",
          "name": "token",
          "type": "address"
        },
        {
          "internalType": "uint256",
          "name": "amount",
          "type": "uint256"
        },
        {
          "internalType": "uint256",
          "name": "pricePerToken",
          "type": "uint256"
        }
      ],
      "name": "addTokens",
      "outputs": [],
      "stateMutability": "nonpayable",
      "type": "function"
    },
    {
      "inputs": [
        {
          "internalType": "contract ProjectToken",
          "name": "",
          "type": "address"
        }
      ],
      "name": "listings",
      "outputs": [
        {
          "internalType": "address",
          "name": "seller",
          "type": "address"
        },
        {
          "internalType": "uint256",
          "name": "amount",
          "type": "uint256"
        },
        {
          "internalType": "uint256",
          "name": "pricePerToken",
          "type": "uint256"
        }
      ],
      "stateMutability": "view",
      "type": "function"
    },
    {
      "inputs": [
        {
          "internalType": "address",
          "name": "token",
          "type": "address"
        },
        {
          "internalType": "uint256",
          "name": "amount",
          "type": "uint256"
        }
      ],
      "name": "purchaseTokens",
      "outputs": [],
      "stateMutability": "payable",
      "type": "function"
    }
  ],
  "bytecode": "0x608060405234801561001057600080fd5b50611481806100206000396000f3fe6080604052600436106100345760003560e01c806322ea22311461003957806365d96c8214610055578063ca056aed14610094575b600080fd5b610053600480360381019061004e9190610aee565b6100bd565b005b34801561006157600080fd5b5061007c60048036038101906100779190610b6c565b610436565b60405161008b93929190610bb7565b60405180910390f35b3480156100a057600080fd5b506100bb60048036038101906100b69190610bee565b610480565b005b600082905060008211801561011357506000808273ffffffffffffffffffffffffffffffffffffffff1673ffffffffffffffffffffffffffffffffffffffff168152602001908152602001600020600101548211155b610152576040517f08c379a000000000000000000000000000000000000000000000000000000000815260040161014990610c9e565b60405180910390fd5b6000670de0b6b3a76400006000808473ffffffffffffffffffffffffffffffffffffffff1673ffffffffffffffffffffffffffffffffffffffff16815260200190815260200160002060020154846101aa9190610ced565b6101b49190610d5e565b9050803410156101c382610834565b6101cc34610834565b6040516020016101dd929190610ebe565b6040516020818303038152906040529061022d576040517f08c379a00000000000000000000000000000000000000000000000000000000081526004016102249190610f42565b60405180910390fd5b5060008273ffffffffffffffffffffffffffffffffffffffff1663a4475ce46040518163ffffffff1660e01b8152600401602060405180830381865afa15801561027b573d6000803e3d6000fd5b505050506040513d601f19601f8201168201806040525081019061029f9190610f79565b90508073ffffffffffffffffffffffffffffffffffffffff163373ffffffffffffffffffffffffffffffffffffffff160361030f576040517f08c379a000000000000000000000000000000000000000000000000000000000815260040161030690610ff2565b60405180910390fd5b8273ffffffffffffffffffffffffffffffffffffffff166323b872dd8233876040518463ffffffff1660e01b815260040161034c93929190611012565b6020604051808303816000875af115801561036b573d6000803e3d6000fd5b505050506040513d601f19601f8201168201806040525081019061038f9190611081565b508073ffffffffffffffffffffffffffffffffffffffff166108fc349081150290604051600060405180830381858888f193505050501580156103d6573d6000803e3d6000fd5b50836000808573ffffffffffffffffffffffffffffffffffffffff1673ffffffffffffffffffffffffffffffffffffffff168152602001908152602001600020600101600082825461042891906110ae565b925050819055505050505050565b60006020528060005260406000206000915090508060000160009054906101000a900473ffffffffffffffffffffffffffffffffffffffff16908060010154908060020154905083565b600082116104c3576040517f08c379a00000000000000000000000000000000000000000000000000000000081526004016104ba9061112e565b60405180910390fd5b60008111610506576040517f08c379a00000000000000000000000000000000000000000000000000000000081526004016104fd906111c0565b60405180910390fd5b60008390503373ffffffffffffffffffffffffffffffffffffffff168173ffffffffffffffffffffffffffffffffffffffff1663a4475ce46040518163ffffffff1660e01b8152600401602060405180830381865afa15801561056d573d6000803e3d6000fd5b505050506040513d601f19601f820116820180604052508101906105919190610f79565b73ffffffffffffffffffffffffffffffffffffffff16146105e7576040517f08c379a00000000000000000000000000000000000000000000000000000000081526004016105de90611252565b60405180910390fd5b828173ffffffffffffffffffffffffffffffffffffffff166370a08231336040518263ffffffff1660e01b81526004016106219190611272565b602060405180830381865afa15801561063e573d6000803e3d6000fd5b505050506040513d601f19601f8201168201806040525081019061066291906112a2565b10156106a3576040517f08c379a000000000000000000000000000000000000000000000000000000000815260040161069a90611341565b60405180910390fd5b828173ffffffffffffffffffffffffffffffffffffffff1663dd62ed3e33306040518363ffffffff1660e01b81526004016106df929190611361565b602060405180830381865afa1580156106fc573d6000803e3d6000fd5b505050506040513d601f19601f8201168201806040525081019061072091906112a2565b1015610761576040517f08c379a0000000000000000000000000000000000000000000000000000000008152600401610758906113fc565b60405180910390fd5b60405180606001604052803373ffffffffffffffffffffffffffffffffffffffff168152602001848152602001838152506000808373ffffffffffffffffffffffffffffffffffffffff1673ffffffffffffffffffffffffffffffffffffffff16815260200190815260200160002060008201518160000160006101000a81548173ffffffffffffffffffffffffffffffffffffffff021916908373ffffffffffffffffffffffffffffffffffffffff160217905550602082015181600101556040820151816002015590505050505050565b60606000600161084384610902565b01905060008167ffffffffffffffff8111156108625761086161141c565b5b6040519080825280601f01601f1916602001820160405280156108945781602001600182028036833780820191505090505b509050600082602001820190505b6001156108f7578080600190039150507f3031323334353637383961626364656600000000000000000000000000000000600a86061a8153600a85816108eb576108ea610d2f565b5b049450600085036108a2575b819350505050919050565b600080600090507a184f03e93ff9f4daa797ed6e38ed64bf6a1f0100000000000000008310610960577a184f03e93ff9f4daa797ed6e38ed64bf6a1f010000000000000000838161095657610955610d2f565b5b0492506040810190505b6d04ee2d6d415b85acef8100000000831061099d576d04ee2d6d415b85acef8100000000838161099357610992610d2f565b5b0492506020810190505b662386f26fc1000083106109cc57662386f26fc1000083816109c2576109c1610d2f565b5b0492506010810190505b6305f5e10083106109f5576305f5e10083816109eb576109ea610d2f565b5b0492506008810190505b6127108310610a1a576127108381610a1057610a0f610d2f565b5b0492506004810190505b60648310610a3d5760648381610a3357610a32610d2f565b5b0492506002810190505b600a8310610a4c576001810190505b80915050919050565b600080fd5b600073ffffffffffffffffffffffffffffffffffffffff82169050919050565b6000610a8582610a5a565b9050919050565b610a9581610a7a565b8114610aa057600080fd5b50565b600081359050610ab281610a8c565b92915050565b6000819050919050565b610acb81610ab8565b8114610ad657600080fd5b50565b600081359050610ae881610ac2565b92915050565b60008060408385031215610b0557610b04610a55565b5b6000610b1385828601610aa3565b9250506020610b2485828601610ad9565b9150509250929050565b6000610b3982610a7a565b9050919050565b610b4981610b2e565b8114610b5457600080fd5b50565b600081359050610b6681610b40565b92915050565b600060208284031215610b8257610b81610a55565b5b6000610b9084828501610b57565b91505092915050565b610ba281610a7a565b82525050565b610bb181610ab8565b82525050565b6000606082019050610bcc6000830186610b99565b610bd96020830185610ba8565b610be66040830184610ba8565b949350505050565b600080600060608486031215610c0757610c06610a55565b5b6000610c1586828701610aa3565b9350506020610c2686828701610ad9565b9250506040610c3786828701610ad9565b9150509250925092565b600082825260208201905092915050565b7f43616e6e6f7420627579207468617420616d6f756e74206f6620746f6b656e73600082015250565b6000610c88602083610c41565b9150610c9382610c52565b602082019050919050565b60006020820190508181036000830152610cb781610c7b565b9050919050565b7f4e487b7100000000000000000000000000000000000000000000000000000000600052601160045260246000fd5b6000610cf882610ab8565b9150610d0383610ab8565b9250828202610d1181610ab8565b91508282048414831517610d2857610d27610cbe565b5b5092915050565b7f4e487b7100000000000000000000000000000000000000000000000000000000600052601260045260246000fd5b6000610d6982610ab8565b9150610d7483610ab8565b925082610d8457610d83610d2f565b5b828204905092915050565b600081905092915050565b7f496e73756666696369656e74207061796d656e742e205265717569726564203a60008201527f2000000000000000000000000000000000000000000000000000000000000000602082015250565b6000610df6602183610d8f565b9150610e0182610d9a565b602182019050919050565b600081519050919050565b60005b83811015610e35578082015181840152602081019050610e1a565b60008484015250505050565b6000610e4c82610e0c565b610e568185610d8f565b9350610e66818560208601610e17565b80840191505092915050565b7f2053656e74203a20000000000000000000000000000000000000000000000000600082015250565b6000610ea8600883610d8f565b9150610eb382610e72565b600882019050919050565b6000610ec982610de9565b9150610ed58285610e41565b9150610ee082610e9b565b9150610eec8284610e41565b91508190509392505050565b6000601f19601f8301169050919050565b6000610f1482610e0c565b610f1e8185610c41565b9350610f2e818560208601610e17565b610f3781610ef8565b840191505092915050565b60006020820190508181036000830152610f5c8184610f09565b905092915050565b600081519050610f7381610a8c565b92915050565b600060208284031215610f8f57610f8e610a55565b5b6000610f9d84828501610f64565b91505092915050565b7f596f752063616e27742062757920796f7572206f776e20746f6b656e73000000600082015250565b6000610fdc601d83610c41565b9150610fe782610fa6565b602082019050919050565b6000602082019050818103600083015261100b81610fcf565b9050919050565b60006060820190506110276000830186610b99565b6110346020830185610b99565b6110416040830184610ba8565b949350505050565b60008115159050919050565b61105e81611049565b811461106957600080fd5b50565b60008151905061107b81611055565b92915050565b60006020828403121561109757611096610a55565b5b60006110a58482850161106c565b91505092915050565b60006110b982610ab8565b91506110c483610ab8565b92508282039050818111156110dc576110db610cbe565b5b92915050565b7f416d6f756e742073686f756c642062652067726561746572207468616e203000600082015250565b6000611118601f83610c41565b9150611123826110e2565b602082019050919050565b600060208201905081810360008301526111478161110b565b9050919050565b7f50726963652070657220746f6b656e2073686f756c642062652067726561746560008201527f72207468616e2030000000000000000000000000000000000000000000000000602082015250565b60006111aa602883610c41565b91506111b58261114e565b604082019050919050565b600060208201905081810360008301526111d98161119d565b9050919050565b7f596f752073686f756c64206265207468652070726f6a656374206f776e65722060008201527f746f2073656c6c206120746f6b656e0000000000000000000000000000000000602082015250565b600061123c602f83610c41565b9150611247826111e0565b604082019050919050565b6000602082019050818103600083015261126b8161122f565b9050919050565b60006020820190506112876000830184610b99565b92915050565b60008151905061129c81610ac2565b92915050565b6000602082840312156112b8576112b7610a55565b5b60006112c68482850161128d565b91505092915050565b7f496e73756666696369656e742062616c616e636520746f2073656c6c2c20796f60008201527f7520646f6e2774206f776e2074686174206d616e7920746f6b656e7300000000602082015250565b600061132b603c83610c41565b9150611336826112cf565b604082019050919050565b6000602082019050818103600083015261135a8161131e565b9050919050565b60006040820190506113766000830185610b99565b6113836020830184610b99565b9392505050565b7f496e73756666696369656e7420616c6c6f77616e636520746f2073656c6c2c2060008201527f706c656173652063616c6c20617070726f766528292066697273740000000000602082015250565b60006113e6603b83610c41565b91506113f18261138a565b604082019050919050565b60006020820190508181036000830152611415816113d9565b9050919050565b7f4e487b7100000000000000000000000000000000000000000000000000000000600052604160045260246000fdfea2646970667358221220b6b892da71bb62634dd61caf33a5094ea7ac3786d0dc978a96e03fad5331331864736f6c63430008170033",
  "linkReferences": {},
  "deployedLinkReferences": {}
}