{
  "_format": "hh-sol-artifact-1",
  "contractName": "ProjectTokenFactory",
  "sourceName": "contracts/ProjectTokenFactory.sol",
  "abi": [
    {
      "inputs": [
        {
          "internalType": "address",
          "name": "_apiAddress",
          "type": "address"
        }
      ],
      "stateMutability": "nonpayable",
      "type": "constructor"
    },
    {
      "anonymous": false,
      "inputs": [
        {
          "components": [
            {
              "components": [
                {
                  "internalType": "address",
                  "name": "owner",
                  "type": "address"
                },
                {
                  "internalType": "string",
                  "name": "title",
                  "type": "string"
                },
                {
                  "internalType": "string",
                  "name": "symbol",
                  "type": "string"
                },
                {
                  "internalType": "string",
                  "name": "description",
                  "type": "string"
                },
                {
                  "internalType": "uint256",
                  "name": "initialValuation",
                  "type": "uint256"
                },
                {
                  "internalType": "uint256",
                  "name": "initialTokenNumber",
                  "type": "uint256"
                }
              ],
              "internalType": "struct ProjectTokenFactory.ProjectStruct",
              "name": "project",
              "type": "tuple"
            },
            {
              "internalType": "contract ProjectToken",
              "name": "token",
              "type": "address"
            }
          ],
          "indexed": false,
          "internalType": "struct ProjectTokenFactory.ProjectAndToken",
          "name": "p_t",
          "type": "tuple"
        }
      ],
      "name": "ProjectCreated",
      "type": "event"
    },
    {
      "anonymous": false,
      "inputs": [
        {
          "indexed": false,
          "internalType": "enum ProjectTokenFactory.WhitelistStatus",
          "name": "s",
          "type": "uint8"
        }
      ],
      "name": "UserWhitelistStatus",
      "type": "event"
    },
    {
      "inputs": [],
      "name": "apiAddress",
      "outputs": [
        {
          "internalType": "address",
          "name": "",
          "type": "address"
        }
      ],
      "stateMutability": "view",
      "type": "function"
    },
    {
      "inputs": [
        {
          "internalType": "string",
          "name": "_title",
          "type": "string"
        },
        {
          "internalType": "string",
          "name": "_description",
          "type": "string"
        },
        {
          "internalType": "string",
          "name": "_symbol",
          "type": "string"
        },
        {
          "internalType": "uint256",
          "name": "_initialValuation",
          "type": "uint256"
        },
        {
          "internalType": "uint256",
          "name": "_initialTokenNumber",
          "type": "uint256"
        }
      ],
      "name": "createProject",
      "outputs": [
        {
          "components": [
            {
              "components": [
                {
                  "internalType": "address",
                  "name": "owner",
                  "type": "address"
                },
                {
                  "internalType": "string",
                  "name": "title",
                  "type": "string"
                },
                {
                  "internalType": "string",
                  "name": "symbol",
                  "type": "string"
                },
                {
                  "internalType": "string",
                  "name": "description",
                  "type": "string"
                },
                {
                  "internalType": "uint256",
                  "name": "initialValuation",
                  "type": "uint256"
                },
                {
                  "internalType": "uint256",
                  "name": "initialTokenNumber",
                  "type": "uint256"
                }
              ],
              "internalType": "struct ProjectTokenFactory.ProjectStruct",
              "name": "project",
              "type": "tuple"
            },
            {
              "internalType": "contract ProjectToken",
              "name": "token",
              "type": "address"
            }
          ],
          "internalType": "struct ProjectTokenFactory.ProjectAndToken",
          "name": "p_t",
          "type": "tuple"
        }
      ],
      "stateMutability": "nonpayable",
      "type": "function"
    },
    {
      "inputs": [],
      "name": "getProjects",
      "outputs": [
        {
          "components": [
            {
              "components": [
                {
                  "internalType": "address",
                  "name": "owner",
                  "type": "address"
                },
                {
                  "internalType": "string",
                  "name": "title",
                  "type": "string"
                },
                {
                  "internalType": "string",
                  "name": "symbol",
                  "type": "string"
                },
                {
                  "internalType": "string",
                  "name": "description",
                  "type": "string"
                },
                {
                  "internalType": "uint256",
                  "name": "initialValuation",
                  "type": "uint256"
                },
                {
                  "internalType": "uint256",
                  "name": "initialTokenNumber",
                  "type": "uint256"
                }
              ],
              "internalType": "struct ProjectTokenFactory.ProjectStruct",
              "name": "project",
              "type": "tuple"
            },
            {
              "internalType": "contract ProjectToken",
              "name": "token",
              "type": "address"
            }
          ],
          "internalType": "struct ProjectTokenFactory.ProjectAndToken[]",
          "name": "",
          "type": "tuple[]"
        }
      ],
      "stateMutability": "view",
      "type": "function"
    },
    {
      "inputs": [
        {
          "internalType": "address",
          "name": "userAddress",
          "type": "address"
        }
      ],
      "name": "isWhitelisted",
      "outputs": [
        {
          "internalType": "bool",
          "name": "",
          "type": "bool"
        }
      ],
      "stateMutability": "view",
      "type": "function"
    },
    {
      "inputs": [
        {
          "internalType": "address",
          "name": "",
          "type": "address"
        }
      ],
      "name": "whitelist",
      "outputs": [
        {
          "internalType": "enum ProjectTokenFactory.WhitelistStatus",
          "name": "",
          "type": "uint8"
        }
      ],
      "stateMutability": "view",
      "type": "function"
    },
    {
      "inputs": [
        {
          "internalType": "address",
          "name": "userAddress",
          "type": "address"
        },
        {
          "internalType": "enum ProjectTokenFactory.WhitelistStatus",
          "name": "status",
          "type": "uint8"
        }
      ],
      "name": "whitelistUser",
      "outputs": [],
      "stateMutability": "nonpayable",
      "type": "function"
    }
  ],
  "bytecode": "0x60806040523480156200001157600080fd5b50604051620036ae380380620036ae8339818101604052810190620000379190620000e8565b806000806101000a81548173ffffffffffffffffffffffffffffffffffffffff021916908373ffffffffffffffffffffffffffffffffffffffff160217905550506200011a565b600080fd5b600073ffffffffffffffffffffffffffffffffffffffff82169050919050565b6000620000b08262000083565b9050919050565b620000c281620000a3565b8114620000ce57600080fd5b50565b600081519050620000e281620000b7565b92915050565b6000602082840312156200010157620001006200007e565b5b60006200011184828501620000d1565b91505092915050565b613584806200012a6000396000f3fe60806040523480156200001157600080fd5b50600436106200006a5760003560e01c8063056c29ee146200006f5780632e9894cb14620000a55780633af32abf14620000c55780639b19251a14620000fb578063dcc601281462000131578063e546bb0c1462000153575b600080fd5b6200008d600480360381019062000087919062000ca7565b62000175565b6040516200009c919062000fba565b60405180910390f35b620000c36004803603810190620000bd919062001037565b62000561565b005b620000e36004803603810190620000dd91906200107e565b6200069b565b604051620000f29190620010cd565b60405180910390f35b6200011960048036038101906200011391906200107e565b6200071d565b6040516200012891906200116a565b60405180910390f35b6200013b6200073d565b6040516200014a919062001298565b60405180910390f35b6200015d62000a40565b6040516200016c9190620012cd565b60405180910390f35b6200017f62000a64565b336200018b816200069b565b620001cd576040517f08c379a0000000000000000000000000000000000000000000000000000000008152600401620001c4906200134b565b60405180910390fd5b600087511162000214576040517f08c379a00000000000000000000000000000000000000000000000000000000081526004016200020b90620013bd565b60405180910390fd5b60008651116200025b576040517f08c379a000000000000000000000000000000000000000000000000000000000815260040162000252906200142f565b60405180910390fd5b6000855111620002a2576040517f08c379a00000000000000000000000000000000000000000000000000000000081526004016200029990620014a1565b60405180910390fd5b60008411620002e8576040517f08c379a0000000000000000000000000000000000000000000000000000000008152600401620002df9062001539565b60405180910390fd5b60008311801562000302575068056bc75e2d631000008311155b62000344576040517f08c379a00000000000000000000000000000000000000000000000000000000081526004016200033b90620015f7565b60405180910390fd5b60006040518060c001604052803373ffffffffffffffffffffffffffffffffffffffff16815260200189815260200187815260200188815260200186815260200185815250905060003389886040516200039e9062000a9c565b620003ac939291906200165a565b604051809103906000f080158015620003c9573d6000803e3d6000fd5b50905060405180604001604052808381526020018273ffffffffffffffffffffffffffffffffffffffff168152509350600284908060018154018082558091505060019003906000526020600020906007020160009091909190915060008201518160000160008201518160000160006101000a81548173ffffffffffffffffffffffffffffffffffffffff021916908373ffffffffffffffffffffffffffffffffffffffff16021790555060208201518160010190816200048c9190620018d1565b506040820151816002019081620004a49190620018d1565b506060820151816003019081620004bc9190620018d1565b506080820151816004015560a08201518160050155505060208201518160060160006101000a81548173ffffffffffffffffffffffffffffffffffffffff021916908373ffffffffffffffffffffffffffffffffffffffff16021790555050507fa86a16c65e2c4460a1c73e5a747b1e0414cb951ca87292c243116438be7cd220846040516200054d919062000fba565b60405180910390a150505095945050505050565b3360008054906101000a900473ffffffffffffffffffffffffffffffffffffffff1673ffffffffffffffffffffffffffffffffffffffff168173ffffffffffffffffffffffffffffffffffffffff1614620005f3576040517f08c379a0000000000000000000000000000000000000000000000000000000008152600401620005ea9062001a08565b60405180910390fd5b81600160008573ffffffffffffffffffffffffffffffffffffffff1673ffffffffffffffffffffffffffffffffffffffff16815260200190815260200160002060006101000a81548160ff02191690836002811115620006585762000657620010ea565b5b02179055507f2abb005b6f5d3edae52a8a6f38b81c232c758a519ae567a5295de8a048b44759826040516200068e91906200116a565b60405180910390a1505050565b6000600280811115620006b357620006b2620010ea565b5b600160008473ffffffffffffffffffffffffffffffffffffffff1673ffffffffffffffffffffffffffffffffffffffff16815260200190815260200160002060009054906101000a900460ff166002811115620007155762000714620010ea565b5b149050919050565b60016020528060005260406000206000915054906101000a900460ff1681565b60606002805480602002602001604051908101604052809291908181526020016000905b8282101562000a375783829060005260206000209060070201604051806040016040529081600082016040518060c00160405290816000820160009054906101000a900473ffffffffffffffffffffffffffffffffffffffff1673ffffffffffffffffffffffffffffffffffffffff1673ffffffffffffffffffffffffffffffffffffffff168152602001600182018054620007fd90620016d4565b80601f01602080910402602001604051908101604052809291908181526020018280546200082b90620016d4565b80156200087c5780601f1062000850576101008083540402835291602001916200087c565b820191906000526020600020905b8154815290600101906020018083116200085e57829003601f168201915b505050505081526020016002820180546200089790620016d4565b80601f0160208091040260200160405190810160405280929190818152602001828054620008c590620016d4565b8015620009165780601f10620008ea5761010080835404028352916020019162000916565b820191906000526020600020905b815481529060010190602001808311620008f857829003601f168201915b505050505081526020016003820180546200093190620016d4565b80601f01602080910402602001604051908101604052809291908181526020018280546200095f90620016d4565b8015620009b05780601f106200098457610100808354040283529160200191620009b0565b820191906000526020600020905b8154815290600101906020018083116200099257829003601f168201915b505050505081526020016004820154815260200160058201548152505081526020016006820160009054906101000a900473ffffffffffffffffffffffffffffffffffffffff1673ffffffffffffffffffffffffffffffffffffffff1673ffffffffffffffffffffffffffffffffffffffff16815250508152602001906001019062000761565b50505050905090565b60008054906101000a900473ffffffffffffffffffffffffffffffffffffffff1681565b604051806040016040528062000a7962000aaa565b8152602001600073ffffffffffffffffffffffffffffffffffffffff1681525090565b611b248062001a2b83390190565b6040518060c00160405280600073ffffffffffffffffffffffffffffffffffffffff16815260200160608152602001606081526020016060815260200160008152602001600081525090565b6000604051905090565b600080fd5b600080fd5b600080fd5b600080fd5b6000601f19601f8301169050919050565b7f4e487b7100000000000000000000000000000000000000000000000000000000600052604160045260246000fd5b62000b5f8262000b14565b810181811067ffffffffffffffff8211171562000b815762000b8062000b25565b5b80604052505050565b600062000b9662000af6565b905062000ba4828262000b54565b919050565b600067ffffffffffffffff82111562000bc75762000bc662000b25565b5b62000bd28262000b14565b9050602081019050919050565b82818337600083830152505050565b600062000c0562000bff8462000ba9565b62000b8a565b90508281526020810184848401111562000c245762000c2362000b0f565b5b62000c3184828562000bdf565b509392505050565b600082601f83011262000c515762000c5062000b0a565b5b813562000c6384826020860162000bee565b91505092915050565b6000819050919050565b62000c818162000c6c565b811462000c8d57600080fd5b50565b60008135905062000ca18162000c76565b92915050565b600080600080600060a0868803121562000cc65762000cc562000b00565b5b600086013567ffffffffffffffff81111562000ce75762000ce662000b05565b5b62000cf58882890162000c39565b955050602086013567ffffffffffffffff81111562000d195762000d1862000b05565b5b62000d278882890162000c39565b945050604086013567ffffffffffffffff81111562000d4b5762000d4a62000b05565b5b62000d598882890162000c39565b935050606062000d6c8882890162000c90565b925050608062000d7f8882890162000c90565b9150509295509295909350565b600073ffffffffffffffffffffffffffffffffffffffff82169050919050565b600062000db98262000d8c565b9050919050565b62000dcb8162000dac565b82525050565b600081519050919050565b600082825260208201905092915050565b60005b8381101562000e0d57808201518184015260208101905062000df0565b60008484015250505050565b600062000e268262000dd1565b62000e32818562000ddc565b935062000e4481856020860162000ded565b62000e4f8162000b14565b840191505092915050565b62000e658162000c6c565b82525050565b600060c08301600083015162000e85600086018262000dc0565b506020830151848203602086015262000e9f828262000e19565b9150506040830151848203604086015262000ebb828262000e19565b9150506060830151848203606086015262000ed7828262000e19565b915050608083015162000eee608086018262000e5a565b5060a083015162000f0360a086018262000e5a565b508091505092915050565b6000819050919050565b600062000f3962000f3362000f2d8462000d8c565b62000f0e565b62000d8c565b9050919050565b600062000f4d8262000f18565b9050919050565b600062000f618262000f40565b9050919050565b62000f738162000f54565b82525050565b6000604083016000830151848203600086015262000f98828262000e6b565b915050602083015162000faf602086018262000f68565b508091505092915050565b6000602082019050818103600083015262000fd6818462000f79565b905092915050565b62000fe98162000dac565b811462000ff557600080fd5b50565b600081359050620010098162000fde565b92915050565b600381106200101d57600080fd5b50565b60008135905062001031816200100f565b92915050565b6000806040838503121562001051576200105062000b00565b5b6000620010618582860162000ff8565b9250506020620010748582860162001020565b9150509250929050565b60006020828403121562001097576200109662000b00565b5b6000620010a78482850162000ff8565b91505092915050565b60008115159050919050565b620010c781620010b0565b82525050565b6000602082019050620010e46000830184620010bc565b92915050565b7f4e487b7100000000000000000000000000000000000000000000000000000000600052602160045260246000fd5b600381106200112d576200112c620010ea565b5b50565b6000819050620011408262001119565b919050565b6000620011528262001130565b9050919050565b620011648162001145565b82525050565b600060208201905062001181600083018462001159565b92915050565b600081519050919050565b600082825260208201905092915050565b6000819050602082019050919050565b60006040830160008301518482036000860152620011d2828262000e6b565b9150506020830151620011e9602086018262000f68565b508091505092915050565b6000620012028383620011b3565b905092915050565b6000602082019050919050565b6000620012248262001187565b62001230818562001192565b9350836020820285016200124485620011a3565b8060005b85811015620012865784840389528151620012648582620011f4565b945062001271836200120a565b925060208a0199505060018101905062001248565b50829750879550505050505092915050565b60006020820190508181036000830152620012b4818462001217565b905092915050565b620012c78162000dac565b82525050565b6000602082019050620012e46000830184620012bc565b92915050565b600082825260208201905092915050565b7f55736572206973206e6f742077686974656c6973746564000000000000000000600082015250565b600062001333601783620012ea565b91506200134082620012fb565b602082019050919050565b60006020820190508181036000830152620013668162001324565b9050919050565b7f5469746c652073686f756c64206e6f7420626520656d70747900000000000000600082015250565b6000620013a5601983620012ea565b9150620013b2826200136d565b602082019050919050565b60006020820190508181036000830152620013d88162001396565b9050919050565b7f4465736372697074696f6e2073686f756c64206e6f7420626520656d70747900600082015250565b600062001417601f83620012ea565b91506200142482620013df565b602082019050919050565b600060208201905081810360008301526200144a8162001408565b9050919050565b7f53796d626f6c2073686f756c64206e6f7420626520656d707479000000000000600082015250565b600062001489601a83620012ea565b9150620014968262001451565b602082019050919050565b60006020820190508181036000830152620014bc816200147a565b9050919050565b7f496e697469616c2076616c756174696f6e2073686f756c64206265206772656160008201527f746572207468616e203000000000000000000000000000000000000000000000602082015250565b600062001521602a83620012ea565b91506200152e82620014c3565b604082019050919050565b60006020820190508181036000830152620015548162001512565b9050919050565b7f496e697469616c20746f6b656e206e756d6265722073686f756c64206265206760008201527f726561746572207468616e203020616e64206c657373207468616e203130302a60208201527f31305e3138000000000000000000000000000000000000000000000000000000604082015250565b6000620015df604583620012ea565b9150620015ec826200155b565b606082019050919050565b600060208201905081810360008301526200161281620015d0565b9050919050565b6000620016268262000dd1565b620016328185620012ea565b93506200164481856020860162000ded565b6200164f8162000b14565b840191505092915050565b6000606082019050620016716000830186620012bc565b818103602083015262001685818562001619565b905081810360408301526200169b818462001619565b9050949350505050565b7f4e487b7100000000000000000000000000000000000000000000000000000000600052602260045260246000fd5b60006002820490506001821680620016ed57607f821691505b602082108103620017035762001702620016a5565b5b50919050565b60008190508160005260206000209050919050565b60006020601f8301049050919050565b600082821b905092915050565b6000600883026200176d7fffffffffffffffffffffffffffffffffffffffffffffffffffffffffffffffff826200172e565b6200177986836200172e565b95508019841693508086168417925050509392505050565b6000620017b2620017ac620017a68462000c6c565b62000f0e565b62000c6c565b9050919050565b6000819050919050565b620017ce8362001791565b620017e6620017dd82620017b9565b8484546200173b565b825550505050565b600090565b620017fd620017ee565b6200180a818484620017c3565b505050565b5b81811015620018325762001826600082620017f3565b60018101905062001810565b5050565b601f82111562001881576200184b8162001709565b62001856846200171e565b8101602085101562001866578190505b6200187e62001875856200171e565b8301826200180f565b50505b505050565b600082821c905092915050565b6000620018a66000198460080262001886565b1980831691505092915050565b6000620018c1838362001893565b9150826002028217905092915050565b620018dc8262000dd1565b67ffffffffffffffff811115620018f857620018f762000b25565b5b620019048254620016d4565b6200191182828562001836565b600060209050601f83116001811462001949576000841562001934578287015190505b620019408582620018b3565b865550620019b0565b601f198416620019598662001709565b60005b8281101562001983578489015182556001820191506020850194506020810190506200195c565b86831015620019a357848901516200199f601f89168262001893565b8355505b6001600288020188555050505b505050505050565b7f4f6e6c79204150492063616e2063616c6c20746869732066756e6374696f6e00600082015250565b6000620019f0601f83620012ea565b9150620019fd82620019b8565b602082019050919050565b6000602082019050818103600083015262001a2381620019e1565b905091905056fe60806040523480156200001157600080fd5b5060405162001b2438038062001b248339818101604052810190620000379190620005a4565b818181600390816200004a919062000889565b5080600490816200005c919062000889565b5050506200009c8362000074620000e660201b60201c565b600a62000082919062000b00565b606462000090919062000b51565b620000ef60201b60201c565b82600560006101000a81548173ffffffffffffffffffffffffffffffffffffffff021916908373ffffffffffffffffffffffffffffffffffffffff16021790555050505062000c70565b60006012905090565b600073ffffffffffffffffffffffffffffffffffffffff168273ffffffffffffffffffffffffffffffffffffffff1603620001645760006040517fec442f050000000000000000000000000000000000000000000000000000000081526004016200015b919062000bad565b60405180910390fd5b62000178600083836200017c60201b60201c565b5050565b600073ffffffffffffffffffffffffffffffffffffffff168373ffffffffffffffffffffffffffffffffffffffff1603620001d2578060026000828254620001c5919062000bca565b92505081905550620002a8565b60008060008573ffffffffffffffffffffffffffffffffffffffff1673ffffffffffffffffffffffffffffffffffffffff1681526020019081526020016000205490508181101562000261578381836040517fe450d38c000000000000000000000000000000000000000000000000000000008152600401620002589392919062000c16565b60405180910390fd5b8181036000808673ffffffffffffffffffffffffffffffffffffffff1673ffffffffffffffffffffffffffffffffffffffff16815260200190815260200160002081905550505b600073ffffffffffffffffffffffffffffffffffffffff168273ffffffffffffffffffffffffffffffffffffffff1603620002f3578060026000828254039250508190555062000340565b806000808473ffffffffffffffffffffffffffffffffffffffff1673ffffffffffffffffffffffffffffffffffffffff168152602001908152602001600020600082825401925050819055505b8173ffffffffffffffffffffffffffffffffffffffff168373ffffffffffffffffffffffffffffffffffffffff167fddf252ad1be2c89b69c2b068fc378daa952ba7f163c4a11628f55a4df523b3ef836040516200039f919062000c53565b60405180910390a3505050565b6000604051905090565b600080fd5b600080fd5b600073ffffffffffffffffffffffffffffffffffffffff82169050919050565b6000620003ed82620003c0565b9050919050565b620003ff81620003e0565b81146200040b57600080fd5b50565b6000815190506200041f81620003f4565b92915050565b600080fd5b600080fd5b6000601f19601f8301169050919050565b7f4e487b7100000000000000000000000000000000000000000000000000000000600052604160045260246000fd5b6200047a826200042f565b810181811067ffffffffffffffff821117156200049c576200049b62000440565b5b80604052505050565b6000620004b1620003ac565b9050620004bf82826200046f565b919050565b600067ffffffffffffffff821115620004e257620004e162000440565b5b620004ed826200042f565b9050602081019050919050565b60005b838110156200051a578082015181840152602081019050620004fd565b60008484015250505050565b60006200053d6200053784620004c4565b620004a5565b9050828152602081018484840111156200055c576200055b6200042a565b5b62000569848285620004fa565b509392505050565b600082601f83011262000589576200058862000425565b5b81516200059b84826020860162000526565b91505092915050565b600080600060608486031215620005c057620005bf620003b6565b5b6000620005d0868287016200040e565b935050602084015167ffffffffffffffff811115620005f457620005f3620003bb565b5b620006028682870162000571565b925050604084015167ffffffffffffffff811115620006265762000625620003bb565b5b620006348682870162000571565b9150509250925092565b600081519050919050565b7f4e487b7100000000000000000000000000000000000000000000000000000000600052602260045260246000fd5b600060028204905060018216806200069157607f821691505b602082108103620006a757620006a662000649565b5b50919050565b60008190508160005260206000209050919050565b60006020601f8301049050919050565b600082821b905092915050565b600060088302620007117fffffffffffffffffffffffffffffffffffffffffffffffffffffffffffffffff82620006d2565b6200071d8683620006d2565b95508019841693508086168417925050509392505050565b6000819050919050565b6000819050919050565b60006200076a620007646200075e8462000735565b6200073f565b62000735565b9050919050565b6000819050919050565b620007868362000749565b6200079e620007958262000771565b848454620006df565b825550505050565b600090565b620007b5620007a6565b620007c28184846200077b565b505050565b5b81811015620007ea57620007de600082620007ab565b600181019050620007c8565b5050565b601f82111562000839576200080381620006ad565b6200080e84620006c2565b810160208510156200081e578190505b620008366200082d85620006c2565b830182620007c7565b50505b505050565b600082821c905092915050565b60006200085e600019846008026200083e565b1980831691505092915050565b60006200087983836200084b565b9150826002028217905092915050565b62000894826200063e565b67ffffffffffffffff811115620008b057620008af62000440565b5b620008bc825462000678565b620008c9828285620007ee565b600060209050601f831160018114620009015760008415620008ec578287015190505b620008f885826200086b565b86555062000968565b601f1984166200091186620006ad565b60005b828110156200093b5784890151825560018201915060208501945060208101905062000914565b868310156200095b578489015162000957601f8916826200084b565b8355505b6001600288020188555050505b505050505050565b7f4e487b7100000000000000000000000000000000000000000000000000000000600052601160045260246000fd5b60008160011c9050919050565b6000808291508390505b6001851115620009fe57808604811115620009d657620009d562000970565b5b6001851615620009e65780820291505b8081029050620009f6856200099f565b9450620009b6565b94509492505050565b60008262000a19576001905062000aec565b8162000a29576000905062000aec565b816001811462000a42576002811462000a4d5762000a83565b600191505062000aec565b60ff84111562000a625762000a6162000970565b5b8360020a91508482111562000a7c5762000a7b62000970565b5b5062000aec565b5060208310610133831016604e8410600b841016171562000abd5782820a90508381111562000ab75762000ab662000970565b5b62000aec565b62000acc8484846001620009ac565b9250905081840481111562000ae65762000ae562000970565b5b81810290505b9392505050565b600060ff82169050919050565b600062000b0d8262000735565b915062000b1a8362000af3565b925062000b497fffffffffffffffffffffffffffffffffffffffffffffffffffffffffffffffff848462000a07565b905092915050565b600062000b5e8262000735565b915062000b6b8362000735565b925082820262000b7b8162000735565b9150828204841483151762000b955762000b9462000970565b5b5092915050565b62000ba781620003e0565b82525050565b600060208201905062000bc4600083018462000b9c565b92915050565b600062000bd78262000735565b915062000be48362000735565b925082820190508082111562000bff5762000bfe62000970565b5b92915050565b62000c108162000735565b82525050565b600060608201905062000c2d600083018662000b9c565b62000c3c602083018562000c05565b62000c4b604083018462000c05565b949350505050565b600060208201905062000c6a600083018462000c05565b92915050565b610ea48062000c806000396000f3fe608060405234801561001057600080fd5b506004361061009e5760003560e01c806370a082311161006657806370a082311461015d57806395d89b411461018d578063a4475ce4146101ab578063a9059cbb146101c9578063dd62ed3e146101f95761009e565b806306fdde03146100a3578063095ea7b3146100c157806318160ddd146100f157806323b872dd1461010f578063313ce5671461013f575b600080fd5b6100ab610229565b6040516100b89190610af8565b60405180910390f35b6100db60048036038101906100d69190610bb3565b6102bb565b6040516100e89190610c0e565b60405180910390f35b6100f96102de565b6040516101069190610c38565b60405180910390f35b61012960048036038101906101249190610c53565b6102e8565b6040516101369190610c0e565b60405180910390f35b610147610317565b6040516101549190610cc2565b60405180910390f35b61017760048036038101906101729190610cdd565b610320565b6040516101849190610c38565b60405180910390f35b610195610368565b6040516101a29190610af8565b60405180910390f35b6101b36103fa565b6040516101c09190610d19565b60405180910390f35b6101e360048036038101906101de9190610bb3565b610420565b6040516101f09190610c0e565b60405180910390f35b610213600480360381019061020e9190610d34565b610443565b6040516102209190610c38565b60405180910390f35b60606003805461023890610da3565b80601f016020809104026020016040519081016040528092919081815260200182805461026490610da3565b80156102b15780601f10610286576101008083540402835291602001916102b1565b820191906000526020600020905b81548152906001019060200180831161029457829003601f168201915b5050505050905090565b6000806102c66104ca565b90506102d38185856104d2565b600191505092915050565b6000600254905090565b6000806102f36104ca565b90506103008582856104e4565b61030b858585610578565b60019150509392505050565b60006012905090565b60008060008373ffffffffffffffffffffffffffffffffffffffff1673ffffffffffffffffffffffffffffffffffffffff168152602001908152602001600020549050919050565b60606004805461037790610da3565b80601f01602080910402602001604051908101604052809291908181526020018280546103a390610da3565b80156103f05780601f106103c5576101008083540402835291602001916103f0565b820191906000526020600020905b8154815290600101906020018083116103d357829003601f168201915b5050505050905090565b600560009054906101000a900473ffffffffffffffffffffffffffffffffffffffff1681565b60008061042b6104ca565b9050610438818585610578565b600191505092915050565b6000600160008473ffffffffffffffffffffffffffffffffffffffff1673ffffffffffffffffffffffffffffffffffffffff16815260200190815260200160002060008373ffffffffffffffffffffffffffffffffffffffff1673ffffffffffffffffffffffffffffffffffffffff16815260200190815260200160002054905092915050565b600033905090565b6104df838383600161066c565b505050565b60006104f08484610443565b90507fffffffffffffffffffffffffffffffffffffffffffffffffffffffffffffffff81146105725781811015610562578281836040517ffb8f41b200000000000000000000000000000000000000000000000000000000815260040161055993929190610dd4565b60405180910390fd5b6105718484848403600061066c565b5b50505050565b600073ffffffffffffffffffffffffffffffffffffffff168373ffffffffffffffffffffffffffffffffffffffff16036105ea5760006040517f96c6fd1e0000000000000000000000000000000000000000000000000000000081526004016105e19190610d19565b60405180910390fd5b600073ffffffffffffffffffffffffffffffffffffffff168273ffffffffffffffffffffffffffffffffffffffff160361065c5760006040517fec442f050000000000000000000000000000000000000000000000000000000081526004016106539190610d19565b60405180910390fd5b610667838383610843565b505050565b600073ffffffffffffffffffffffffffffffffffffffff168473ffffffffffffffffffffffffffffffffffffffff16036106de5760006040517fe602df050000000000000000000000000000000000000000000000000000000081526004016106d59190610d19565b60405180910390fd5b600073ffffffffffffffffffffffffffffffffffffffff168373ffffffffffffffffffffffffffffffffffffffff16036107505760006040517f94280d620000000000000000000000000000000000000000000000000000000081526004016107479190610d19565b60405180910390fd5b81600160008673ffffffffffffffffffffffffffffffffffffffff1673ffffffffffffffffffffffffffffffffffffffff16815260200190815260200160002060008573ffffffffffffffffffffffffffffffffffffffff1673ffffffffffffffffffffffffffffffffffffffff16815260200190815260200160002081905550801561083d578273ffffffffffffffffffffffffffffffffffffffff168473ffffffffffffffffffffffffffffffffffffffff167f8c5be1e5ebec7d5bd14f71427d1e84f3dd0314c0f7b2291e5b200ac8c7c3b925846040516108349190610c38565b60405180910390a35b50505050565b600073ffffffffffffffffffffffffffffffffffffffff168373ffffffffffffffffffffffffffffffffffffffff16036108955780600260008282546108899190610e3a565b92505081905550610968565b60008060008573ffffffffffffffffffffffffffffffffffffffff1673ffffffffffffffffffffffffffffffffffffffff16815260200190815260200160002054905081811015610921578381836040517fe450d38c00000000000000000000000000000000000000000000000000000000815260040161091893929190610dd4565b60405180910390fd5b8181036000808673ffffffffffffffffffffffffffffffffffffffff1673ffffffffffffffffffffffffffffffffffffffff16815260200190815260200160002081905550505b600073ffffffffffffffffffffffffffffffffffffffff168273ffffffffffffffffffffffffffffffffffffffff16036109b157806002600082825403925050819055506109fe565b806000808473ffffffffffffffffffffffffffffffffffffffff1673ffffffffffffffffffffffffffffffffffffffff168152602001908152602001600020600082825401925050819055505b8173ffffffffffffffffffffffffffffffffffffffff168373ffffffffffffffffffffffffffffffffffffffff167fddf252ad1be2c89b69c2b068fc378daa952ba7f163c4a11628f55a4df523b3ef83604051610a5b9190610c38565b60405180910390a3505050565b600081519050919050565b600082825260208201905092915050565b60005b83811015610aa2578082015181840152602081019050610a87565b60008484015250505050565b6000601f19601f8301169050919050565b6000610aca82610a68565b610ad48185610a73565b9350610ae4818560208601610a84565b610aed81610aae565b840191505092915050565b60006020820190508181036000830152610b128184610abf565b905092915050565b600080fd5b600073ffffffffffffffffffffffffffffffffffffffff82169050919050565b6000610b4a82610b1f565b9050919050565b610b5a81610b3f565b8114610b6557600080fd5b50565b600081359050610b7781610b51565b92915050565b6000819050919050565b610b9081610b7d565b8114610b9b57600080fd5b50565b600081359050610bad81610b87565b92915050565b60008060408385031215610bca57610bc9610b1a565b5b6000610bd885828601610b68565b9250506020610be985828601610b9e565b9150509250929050565b60008115159050919050565b610c0881610bf3565b82525050565b6000602082019050610c236000830184610bff565b92915050565b610c3281610b7d565b82525050565b6000602082019050610c4d6000830184610c29565b92915050565b600080600060608486031215610c6c57610c6b610b1a565b5b6000610c7a86828701610b68565b9350506020610c8b86828701610b68565b9250506040610c9c86828701610b9e565b9150509250925092565b600060ff82169050919050565b610cbc81610ca6565b82525050565b6000602082019050610cd76000830184610cb3565b92915050565b600060208284031215610cf357610cf2610b1a565b5b6000610d0184828501610b68565b91505092915050565b610d1381610b3f565b82525050565b6000602082019050610d2e6000830184610d0a565b92915050565b60008060408385031215610d4b57610d4a610b1a565b5b6000610d5985828601610b68565b9250506020610d6a85828601610b68565b9150509250929050565b7f4e487b7100000000000000000000000000000000000000000000000000000000600052602260045260246000fd5b60006002820490506001821680610dbb57607f821691505b602082108103610dce57610dcd610d74565b5b50919050565b6000606082019050610de96000830186610d0a565b610df66020830185610c29565b610e036040830184610c29565b949350505050565b7f4e487b7100000000000000000000000000000000000000000000000000000000600052601160045260246000fd5b6000610e4582610b7d565b9150610e5083610b7d565b9250828201905080821115610e6857610e67610e0b565b5b9291505056fea26469706673582212208d7a6fa42c86276007dc893eba14a6dd823f9017e1d720c4d9390281de1c3cc064736f6c63430008170033a2646970667358221220b5eb75ccda04e2bdde968d1030b5ea0fee1e0f674e7e3ab7a58f63fec75f708b64736f6c63430008170033",
  "linkReferences": {},
  "deployedLinkReferences": {}
}